:100000000C9401020C9429020C9429020C942902EC
:100010000C9429020C9429020C9429020C942902B4
:100020000C9429020C9429020C948E160C945C15E5
:100030000C9429020C9429020C9429020C94290294
:100040000C9429020C9429020C9429020C94290284
:100050000C9429020C9429020C9429020C945D0D35
:100060000C9429020C9483110C94B5110C94290260
:100070000C9429020C9429020C9429020C94290254
:100080000C9429020C9429020C9429020C94290244
:100090000C9429020C9429020C9429020C94290234
:1000A0000C9429020C9429020C942902A70EAA0E82
:1000B000990E9D0EA30ECB0ECB0ECB0EAE0EB20E36
:1000C000B60EBC0EC00ECB0EC60E72756E2D6272D1
:1000D000696467650A000A000A0007060504010052
:1000E000080A0B0C0D090000000200090F000003B4
:1000F0000401000C000000000000000000000000EF
:1001000000000000040802011040804010204080E0
:10011000408008020401804020100201108010205D
:100120004040040404040403040502020202040320
:100130000202020206060606060604040202020481
:10014000000000002300260029002C002F000000E2
:100150000000250028002B002E00310000000000C8
:10016000240027002A002D003000080B00020202A4
:100170000100090400000102020000052400100132
:1001800005240101010424020605240600010705D7
:10019000810310004009040100020A000000070565
:1001A00002024000000705830240000000C1808178
:1001B000C112010002020000404123418000010100
:1001C00002000112010002000000404123418000B2
:1001D000010102000141726475696E6F204C4C434D
:1001E0000041726475696E6F2059756E00040309D1
:1001F0000400000000000000002A2B28000000007E
:1002000000000000000000000000000000000000EE
:10021000002C9EB4A0A1A2A434A6A7A5AE362D376B
:1002200038271E1F20212223242526B333B62EB7BC
:10023000B89F8485868788898A8B8C8D8E8F9091D4
:1002400092939495969798999A9B9C9D2F3130A361
:10025000AD350405060708090A0B0C0D0E0F101129
:1002600012131415161718191A1B1C1DAFB1B0B5AF
:10027000000904020001030000000921010100013E
:100280002265000705840340000105010902A10160
:100290000901A1008501050919012903150025019E
:1002A00095037501810295017505810305010930EA
:1002B000093109381581257F750895038106C0C06D
:1002C00005010906A1018502050719E029E71500C6
:1002D0002501750195088102950175088103950630
:1002E0007508150025650507190029658100C000FE
:1002F000407A10F35A00A0724E18090010A5D4E8F5
:100300000000E87648170000E40B54020000CA9A87
:100310003B000000E1F505000080969800000040D9
:10032000420F000000A0860100000010270000001E
:1003300000E803000000006400000000000A000064
:100340000000000100000000002C76D888DC674F18
:100350000823DFC1DFAE59E1B1B796E5E3E453C648
:100360003AE651997696E8E6C28426EB898C9B6240
:10037000ED407C6FFCEFBC9C9F40F2BAA56FA5F4EA
:1003800090055A2AF75C936B6CF9676DC11BFCE012
:10039000E40D47FEF520E6B500D0ED902E03009465
:1003A0003577050080841E080000204E0A000000FA
:1003B000C80C333333330F986E12831141EF8D2104
:1003C00014893BE65516CFFEE6DB18D1844B381B6B
:1003D000F77C1D901DA4BBE424203284725E228130
:1003E00000C9F124ECA1E53D2700D404E20781090E
:1003F0008B099209AE0BB90B2110E5116E12F7199A
:10040000850911241FBECFEFDAE0DEBFCDBF11E0BA
:10041000A0E0B1E0E2E8F2E402C005900D92A43F52
:10042000B107D9F723E0A4EFB1E001C01D92AC3AC7
:10043000B207E1F713E0C0E0D4E004C02297FE0168
:100440000E94051CCA3ED107C9F70E947E120C9477
:1004500034210C94000026E040E950ED63E070E0A8
:1004600080916D0290916E020E94211184E692E0CB
:100470000E94DB0686E892E00E94890960ED77E041
:1004800080E090E00E94D60D2DE33AE845EC52E47E
:1004900066E170E088E092E00E944D0D8AEF91E005
:1004A0000C94CB0BEF92FF920F931F93CF93DF939C
:1004B000CDB7DEB7CB55D1090FB6F894DEBF0FBE6E
:1004C000CDBF7C018B011C821B8248EE53E060E0B3
:1004D00070E04D835E836F83788789EA91E09A8329
:1004E000898384E692E09E878D871B8A1C8A1D8AF9
:1004F0006BE171E0CE018A5A9F4F0E947017B701DD
:10050000CE018A5A9F4F0E94931862E271E00E94C6
:10051000A618B8010E949318BC01CE0101960E9452
:10052000980BCE018A5A9F4F0E940217CE01019666
:100530000E949A0A8111FACFCE0101960E942D0BDA
:10054000C55ADF4F0FB6F894DEBF0FBECDBFDF91A7
:10055000CF911F910F91FF90EF9008950F931F93EC
:10056000CF93DF93CDB7DEB7CB55D1090FB6F89453
:10057000DEBF0FBECDBF8C011C821B8248EE53E054
:1005800060E070E04D835E836F83788789EA91E055
:100590009A83898384E692E09E878D871B8A1C8AD2
:1005A0001D8A68E271E0CE018A5A9F4F0E9470173F
:1005B000B801CE018A5A9F4F0E949318BC01CE0108
:1005C00001960E94980BCE018A5A9F4F0E940217F3
:1005D000CE0101960E949A0A8111FACFCE010196AE
:1005E0000E942D0BC55ADF4F0FB6F894DEBF0FBE29
:1005F000CDBFDF91CF911F910F910895CF93DF93DE
:10060000CDB7DEB7CB55D1090FB6F894DEBF0FBE1C
:10061000CDBF1C821B8288EE93E0A0E0B0E08D830A
:100620009E83AF83B88789EA91E09A83898384E6C1
:1006300092E09E878D871B8A1C8A1D8A65E471E083
:10064000CE018A5A9F4F0E947017BE016A5A7F4F8F
:10065000CE0101960E94980BCE018A5A9F4F0E94AC
:100660000217CE0101960E949A0A8111FACFCE019B
:1006700001960E942D0BC55ADF4F0FB6F894DEBFCE
:100680000FBECDBFDF91CF9108950F931F93CF93EE
:10069000DF93CDB7DEB7CB55D1090FB6F894DEBFE7
:1006A0000FBECDBF8C0167E271E00E9470171C8203
:1006B0001B8248EE53E060E070E04D835E836F8301
:1006C000788789EA91E09A83898384E692E09E871D
:1006D0008D871B8A1C8A1D8A60E671E0CE018A5ACA
:1006E0009F4F0E947017BE016A5A7F4FCE0101963C
:1006F0000E94340BCE018A5A9F4F0E94021765E672
:1007000071E0CE018A5A9F4F0E947017BE016A5A4B
:100710007F4FCE0101960E94240ACE018A5A9F4F34
:100720000E940217CE0101960E94ED0ACE010196A9
:100730000E94EF09181619065CF4CE0101960E947A
:10074000F9098A3099F3682FC8010E94E917EECFA2
:10075000CE0101960E942D0BC801C55ADF4F0FB67E
:10076000F894DEBF0FBECDBFDF91CF911F910F91E7
:100770000895EF92FF920F931F93CF93DF93CDB71E
:10078000DEB762970FB6F894DEBF0FBECDBF67E24B
:1007900071E0CE010D960E947017CE0101960E9465
:1007A0004503BE016F5F7F4FCE010D960E94D217A9
:1007B000CE0101960E9402176CE2CE010D960E94B6
:1007C000E91782E10E945E0EBC01CE010D960E94E7
:1007D000FC176CE2CE010D960E94E91784E10E949D
:1007E0005E0EBC01CE010D960E94FC176CE2CE019C
:1007F0000D960E94E91788EBE82E8BE0F82E83E136
:100800000E945E0EBC01882777FD8095982F00918D
:10081000F6011091F7012091F8013091F901600F74
:10082000711F821F931F6093F6017093F7018093ED
:10083000F8019093F90121E0E21AF10801F728EBA1
:100840003BE040E050E00E94E41BBA01A901CE0168
:100850000D960E942E186CE2CE010D960E94E917AB
:100860001092F6011092F7011092F8011092F9011E
:100870008AEF91E00E94030DAB01BC01CE010D9601
:100880000E9461186CE2CE010D960E94E91760E0AB
:100890008AEF91E00E94890C20E030E040E850E4CB
:1008A0000E94041AAB01BC01CE010D960E94611892
:1008B0006CE671E0CE0101960E947017BE01635F85
:1008C0007F4FCE0107960E949D17BE016F5F7F4F3D
:1008D000CE0107960E945202CE0107960E9402178F
:1008E000CE0101960E940217BE01635F7F4FCE01C9
:1008F00001960E949D17CE0101960E94AE02CE0184
:1009000001960E9402178091F4019091F5010196E1
:100910009093F5018093F4018D329140D4F00E94C0
:10092000FE0261E08DE00E94050F68EE73E080E05A
:1009300090E00E94D60D60E08DE00E94050F68EE09
:1009400073E080E090E00E94D60D1092F5011092C5
:10095000F40161E08DE00E94050F6CE271E080E03F
:1009600090E00E94D60D60E08DE00E94050F6CE2E1
:1009700071E080E090E00E94D60D60E375E780E0D2
:1009800090E00E94D60DCE010D960E94021762964D
:100990000FB6F894DEBF0FBECDBFDF91CF911F9190
:1009A0000F91FF90EF90089526E046E165E18AEF10
:1009B00091E00C94C40BFC01238134812627022E84
:1009C0002295207F2025032E322F22952F7002267C
:1009D000269532272327220F220F220F2025FC01E4
:1009E000348323830895CF93DF93EC018D819E811F
:1009F000DC01ED91FC916C810190F081E02D099575
:100A00008D819E81DC01ED91FC910190F081E02DC2
:100A10006B81DF91CF9109948F929F92AF92BF9299
:100A2000CF92DF92EF92FF92CF93DF93EC016B01B5
:100A30000E94A70D4B015C01E12CF12C8D819E8160
:100A4000DC01ED91FC910680F781E02D099597FF7F
:100A50000DC00E94A70D681979098A099B096C15B8
:100A60007D058E059F0550F38FEF9FEFDF91CF91AE
:100A7000FF90EF90DF90CF90BF90AF909F908F90BE
:100A80000895CF93DF93EC018D819E81DC01ED9180
:100A9000FC910480F581E02D09951816190654F48F
:100AA0008D819E81DC01ED91FC910680F781E02D26
:100AB0000995EACFDF91CF9108952F923F924F92FF
:100AC0005F926F927F928F929F92AF92BF92CF92DE
:100AD000DF92EF92FF920F931F93CF93DF93CDB7E7
:100AE000DEB72D970FB6F894DEBF0FBECDBF3C0129
:100AF0001B013C832B83BF82AE825801AC0CBD1C12
:100B0000A40EB51EBD824B2C512CCA01860F971F17
:100B100099878887D901A00FB11FBB87AA87F601E3
:100B2000EE0DFF1DFD87EC87D30118968C915816AA
:100B300008F026C1EFEFFFEFD3011496FC93EE937C
:100B4000139715968D919C911697DC01ED91FC9170
:100B50000190F081E02D6FEF09956FEFC3010E94C6
:100B6000DB04F30185819681DC01ED91FC9101901C
:100B7000F081E02DD3016C910995F3016081C301EF
:100B80000E94DB04D30115968D919C911697DC0190
:100B9000ED91FC910190F081E02D6D810995642D1E
:100BA000C3010E94DB04F30185819681DC01ED9194
:100BB000FC910190F081E02D6A2D09956A2DC30109
:100BC0000E94DB04610188859985C816D906A1F0C9
:100BD000F301858196818601DC01ED91FC91019004
:100BE000F081E02DD6016D916D010995F8016081CC
:100BF000C3010E94DB04E7CFCB80DC808A859B8524
:100C0000C816D906B1F0D30115968D919C9116970F
:100C10008601DC01ED91FC910190F081E02DD6017F
:100C20006D916D010995F8016081C3010E94DB049B
:100C3000E5CF87018C859D8508171907B1F0D30191
:100C400015968D919C9116976801DC01ED91FC91B0
:100C50000190F081E02DD8016D918D010995F6018B
:100C60006081C3010E94DB04E5CFC3010E94F3044D
:100C700064E670E0C3010E940C058F3F910509F006
:100C800074C0EFEFFFEFD3011496FC93EE9313972C
:100C90006FEFC3010E94DB0465E070E0C3010E94B6
:100CA0000C05D3016C91262F30E08217930709F0D1
:100CB0005CC0C3010E94DB046AE070E0C3010E94D3
:100CC0000C058C0197FD51C0682FC3010E94DB0405
:100CD0006AE070E0C3010E940C056C0197FD45C0FD
:100CE000682FC3010E94DB040A83198209811A81DB
:100CF0000C0D1D1DC12CD12C65E070E0C301C01688
:100D0000D106A1F0C814D90489F00E940C0597FD02
:100D100009C0EE81FF81EC0DFD1D8083682FC301AA
:100D20000E94DB04BFEFCB1ADB0AE6CF0E940C0562
:100D30006C0197FD1AC065E070E0C3010E940C05CC
:100D400097FD13C0DC2CCC24C80ED91EF30183817F
:100D500094818C159D0549F480818F5F8083C80143
:100D60008016910678F4C4010DC0539464E670E0D7
:100D700080E090E00E94D60DC3010E944105D4CED0
:100D80008FEF9FEF2D960FB6F894DEBF0FBECDBF4D
:100D9000DF91CF911F910F91FF90EF90DF90CF9057
:100DA000BF90AF909F908F907F906F905F904F908B
:100DB0003F902F9008953F924F925F926F927F9253
:100DC0008F929F92AF92BF92CF92DF92EF92FF925B
:100DD0000F931F93CF93DF93CDB7DEB72E970FB648
:100DE000F894DEBF0FBECDBF3C01DC0117968C919D
:100DF00017978111CFC081E017968C93C3010E9491
:100E0000410568EE73E080E090E00E94D60DF301AA
:100E100085819681DC01ED91FC910480F581E02DC6
:100E200009951816190654F345E0542E44244394AA
:100E300052E3352EE1E1F1E0DE011696852D0190B9
:100E40000D928A95E1F7F3014086812C912CA12C1B
:100E5000B12CC12CD12CE12CF12C00E010E020E0D1
:100E600030E045E050E0BE016A5F7F4FC3010E9461
:100E70005D0563E0D30115968D919C9116970E94B4
:100E8000FE126AEF70E080E090E00E94D60D68EDFF
:100E900070E0F301858196810E94D7126AEF70E0BD
:100EA00080E090E00E94D60D66ED70E0D3011596CB
:100EB0008D919C9116970E94D71264EF71E080E0AB
:100EC00090E00E94D60D6AEC70E0F3018581968176
:100ED0000E94D71264EF71E080E090E00E94D60D8E
:100EE000C3010E944105E6E1F1E0DE011196852D86
:100EF00001900D928A95E1F7D30118963C9234E067
:100F0000832E912CFE013B965F0120E030E045E00E
:100F100050E0BE016F5F7F4FC3010E945D058F3FB0
:100F2000FFEF9F0739F468EE73E080E090E00E94E5
:100F3000D60D80CF2B852111FFCF049711F52C857D
:100F400030E02053310944E6429FC001439F900D99
:100F500011242D8530E0205331096AE0629FA00101
:100F6000639F500D1124840F951F2E8530E0205370
:100F70003109820F931FD30112969C938E93119780
:100F800005C084E690E0F3019283818382E3D3017C
:100F900018968C932E960FB6F894DEBF0FBECDBF79
:100FA000DF91CF911F910F91FF90EF90DF90CF9045
:100FB000BF90AF909F908F907F906F905F904F9079
:100FC0003F900895109264028FEE92E090936A022F
:100FD0008093690210926B0210926C0290936E02E1
:100FE00080936D0208958F929F92AF92BF92CF929D
:100FF000DF92EF92FF920F931F9348015901C12C8A
:10100000D12CE12CF12C00E010E020E030E00E9437
:101010005D051F910F91FF90EF90DF90CF90BF90F3
:10102000AF909F908F9008950F931F9300E010E072
:1010300020E030E00E94F3071F910F910895CF93B5
:10104000DF9300D0CDB7DEB7DC0152968C9152977A
:10105000882389F080E589836A8342E050E0BE01FD
:101060006F5F7F4F1C968D919C911D970E94140875
:1010700081E090E01FC05596ED91FC9156975396F4
:101080008C91539791E0980F53969C935397E80F48
:10109000F11D608353969C91539754968C9154976D
:1010A000981308C0ED91FC9111970284F385E02D0F
:1010B000CD0109950F900F90DF91CF910895AF92D8
:1010C000BF92CF92DF92EF92FF920F931F93CF9335
:1010D000DF9300D0CDB7DEB75C017A01DC01529618
:1010E0008C91811104C08B01E60EF71E41C06A018C
:1010F000BFEFCB1ADB0AC60169837A830E94931281
:101100008C01FC0180E58193A70169817A81CF017F
:101110000E941B1EA601B801F501848595850E94D9
:1011200014080115110519F0C8010E949712C70192
:1011300022C0D5015596ED91FC91569753968C910E
:10114000539791E0980F53969C93D8019D918D01F0
:10115000E80FF11D9083F50193898489981308C0E5
:101160000190F081E02D0284F385E02DC501099501
:101170000E151F05F1F60F900F90DF91CF911F9183
:101180000F91FF90EF90DF90CF90BF90AF900895B8
:10119000CF93DF93EC018A8981110AC04B8950E01B
:1011A0006D897E898C859D850E94140881E08B8BDA
:1011B000DF91CF910895FC011382128248EE53E033
:1011C00060E070E044835583668377838BE891E029
:1011D0009183808384E692E09587848716861786BC
:1011E000118A108A81E0828B0895CF93DF93EC01FE
:1011F0008A89811108C08D899E89009711F00E940B
:10120000971281E08A8BDF91CF910895EF92FF9240
:101210000F931F93CF93DF9300D0CDB7DEB77C0140
:10122000FC018685811114C0178680E7898380E2DE
:101230008A832089318900E210E042E050E0BE015B
:101240006F5F7F4F848595850E94F307F70186873E
:101250000F900F90DF91CF911F910F91FF90EF9022
:101260000895CF93DF93EC010E9406098E8590E0EC
:10127000DF91CF910895CF93DF93EC010E9406098F
:101280008E85882369F081508E87E889F9898F855A
:1012900091E0980F9F87E80FF11D808190E002C0D8
:1012A0008FEF9FEFDF91CF910895CF93DF93EC0104
:1012B0000E9406098E85882341F08F85E889F98987
:1012C000E80FF11D808190E002C08FEF9FEFDF916A
:1012D000CF910895CF93DF93EC010E94F5088889A0
:1012E0009989009721F00E949712198A188ADF9134
:1012F000CF9108952BE831E0FC01318320830C94D9
:101300006A098FE692E00C94DB088FE692E00C9479
:101310007A0981E0089584E692E0909387028093B1
:101320008602089584E692E0909389028093880271
:10133000089508950F931F93CF93DF9300D01F92CA
:10134000CDB7DEB729E42983FC0126852A836B8388
:1013500000E010E020E030E043E050E0BE016F5FCD
:101360007F4F848595850E94F30781E090E00F9080
:101370000F900F90DF91CF911F910F910895EF92F1
:10138000FF920F931F93CF93DF9300D01F92CDB79F
:10139000DEB77C01FC018389811117C0148A8FE4B8
:1013A000898386858A8380E48B8397012B5E3F4FF8
:1013B00000E410E043E050E0BE016F5F7F4F8485A2
:1013C00095850E94F307F701838B0F900F900F9084
:1013D000DF91CF911F910F91FF90EF900895CF93E0
:1013E000DF93EC010E94BF098B8990E0DF91CF91E0
:1013F0000895CF93DF93EC010E94BF098B89882366
:1014000059F081508B8B8C8991E0980F9C8BC80F81
:10141000D11D8D8990E002C08FEF9FEFDF91CF91BA
:101420000895CF93DF93EC010E94BF098B89882335
:1014300031F08C89C80FD11D8D8990E002C08FEFEB
:101440009FEFDF91CF9108950F931F93CF93DF9379
:10145000EC018B0167E971E0888999890E94D917AD
:10146000B80188899989DF91CF911F910F910C94D0
:10147000D2176F927F928F929F92AF92BF92CF922C
:10148000DF92EF92FF920F931F93CF93DF9300D0E1
:101490001F92CDB7DEB73C0182E58B83D301509616
:1014A000ED91FC915197048115812081318182E079
:1014B000882E912CFE0131965F01C12CD12CE12C9C
:1014C000F12C41E050E0BE016D5F7F4F1C968D9185
:1014D0009C911D970E945D058A8190E0D3011F9623
:1014E0009C938E931E9750960D911C9151970115C8
:1014F000110531F0C8010E940217C8010E9495121F
:10150000F301118A108A8981811102C081E0828BE6
:101510000F900F900F90DF91CF911F910F91FF903F
:10152000EF90DF90CF90BF90AF909F908F907F9083
:101530006F9008950F931F93CF93DF9300D01F9266
:10154000CDB7DEB722E72983FC0126852A8301E097
:1015500010E09E012D5F3F4F42E050E0BE016F5F03
:101560007F4F848595850E94F30781E09B819130B0
:1015700009F080E00F900F900F90DF91CF911F91B5
:101580000F9108950F931F93CF93DF9300D000D056
:10159000CDB7DEB727E52B83FC0126852C8302E03F
:1015A00010E09E012F5F3F4F42E050E0BE016D5FB3
:1015B0007F4F848595850E94F307898190E0982F5D
:1015C00088272A81820F911D0F900F900F900F9006
:1015D000DF91CF911F910F910895CF93DF93EC018D
:1015E0000E94390ACE010E949A0A882339F064E6E3
:1015F00070E080E090E00E94D60DF4CFCE01DF9144
:10160000CF910C94C20AEF92FF920F931F93CF9346
:10161000DF9300D0CDB7DEB77C01FC01828988233F
:1016200089F087E7898386858A8300E010E020E0DF
:1016300030E042E050E0BE016F5F7F4F84859585CA
:101640000E94F307F701128A0F900F90DF91CF915C
:101650001F910F91FF90EF90089529EA31E0FC016E
:10166000318320830C94030BEF92FF920F931F930F
:10167000CF93DF9300D0CDB7DEB77C0169837A8347
:101680000E94030B86E090E00E9491128C01698118
:101690007A810E949D17F701118B008B0F900F909C
:1016A000DF91CF911F910F91FF90EF900895EF92EE
:1016B000FF920F931F93CF93DF9300D000D000D001
:1016C000CDB7DEB78C017B0169E971E0CE010196EF
:1016D0000E947017BE016F5F7F4FC8010E94340BDC
:1016E000CE0101960E94021762EA71E0CE010196D6
:1016F0000E947017BE016F5F7F4FC8010E94240ACD
:10170000CE0101960E940217B701C8010E94240A67
:10171000C8010E94390A26960FB6F894DEBF0FBEA4
:10172000CDBFDF91CF911F910F91FF90EF90089562
:10173000CF93DF93EC010E94570BCE010E949A0ACF
:10174000882339F064E670E080E090E00E94D60DD6
:10175000F4CFCE01DF91CF910C94C20A0F9300E039
:1017600020E040E060E08AE892E00E9462120F917F
:1017700008950F9300E020E040E060E080E992E00F
:101780000E9462120F910895FC01668347832087AF
:1017900081E085870895CF93DF93EC0160E08E812F
:1017A0000E94CC0E61E08E810E94050F19861A8678
:1017B0001B861C86DF91CF910895DF92EF92FF92F6
:1017C0000F931F93CF93DF93EC0161E08E810E9412
:1017D000050F6AEF70E080E090E00E94D60D0E9455
:1017E000A70D09851A852B853C856017710782072F
:1017F000930720F419861A861B861C862D852111D5
:1018000011C009851A852B853C85DC01CB01801B25
:10181000910BA20BB30B803D9740A105B10510F4CD
:1018200081E06FC01D860E94A70D69877A878B872C
:101830009C871C821B821A821982188261E08E8129
:101840000E94CC0E60E08E810E94050F64E170E082
:1018500080E090E00E94D60D61E08E810E94050F2D
:1018600088E290E00E94FE0D60E08E810E94CC0E26
:10187000F12CD12C81E0E12C082F10E08E810E9408
:101880003B0F8017910741F4E39481E090E00E94C0
:10189000FE0D8FEFE812F2CF8E810E943B0F9FEF7B
:1018A000E916C9F023E02F1590F4F0FC10C09D2D2F
:1018B000969596959695FE01E90FF11D9081990FE9
:1018C000908328852E1510F491609083D394F3941F
:1018D00095E5F912D0CF27E22D1590F42C8130E058
:1018E0004881898190E0840F911D4A81840F911D68
:1018F0004B81840F911D99272817390709F490CF40
:1019000080E0DF91CF911F910F91FF90EF90DF90DA
:101910000895CF92DF92EF92FF920F931F93CF9390
:10192000DF93EC01162F0E94DD0B882309F450C0D1
:101930008F818B3031F008F44BC08551823078F0C4
:1019400047C06A8170E080E090E00E94D11A1123C4
:1019500009F449C020E030E040E151E42AC00A81A6
:10196000602F6F7770E080E090E00E94D31A20E053
:1019700030E040E853E40E945F1B6B017C016B8107
:1019800070E080E090E00E94D31A9B01AC01C70197
:10199000B6010E94051A20E030E040E251E40E94C6
:1019A000691A07FD9058112309F120E030E040E169
:1019B00051E40E945F1B20E030E040EA50E40E94C6
:1019C000691A20E030E040E052E40E94051A0EC09F
:1019D00065EB71E08FE992E00E94FC1220E030E0BC
:1019E00040E050E005C09B01AC0102C09B01AC018E
:1019F000B901CA01DF91CF911F910F91FF90EF9034
:101A0000DF90CF900895CF92DF92EF92FF92CF9325
:101A1000DF93EC010E94DD0B882379F18F818B30FD
:101A200029F158F18551823040F5688170E080E0FD
:101A300090E00E94D11A20E030E040E853E40E9498
:101A40005F1B6B017C01698170E080E090E00E9487
:101A5000D31A9B01AC01C701B6010E94051A20E010
:101A600030E040E251E40E94691A10C0688170E0E1
:101A700080E090E00E94D11A09C065EB71E08FE927
:101A800092E00E94FC1260E070E0CB01DF91CF9108
:101A9000FF90EF90DF90CF900895FC01778B668BDD
:101AA000248F358F468F578F40E050E060E074E41C
:101AB00040AF51AF62AF73AF08951F920F920FB650
:101AC0000F9211242F933F938F939F93AF93BF93C4
:101AD0008091970290919802A0919902B0919A02F8
:101AE0003091960223E0230F2D3720F40196A11D9B
:101AF000B11D05C026E8230F0296A11DB11D20933C
:101B000096028093970290939802A0939902B093C3
:101B10009A0280919B0290919C02A0919D02B091AB
:101B20009E020196A11DB11D80939B0290939C0281
:101B3000A0939D02B0939E02BF91AF919F918F9110
:101B40003F912F910F900FBE0F901F9018952FB7B8
:101B5000F894609197027091980280919902909107
:101B60009A022FBF08953FB7F89480919B029091FD
:101B70009C02A0919D02B0919E0226B5A89B05C033
:101B80002F3F19F00196A11DB11D3FBF6627782F89
:101B9000892F9A2F620F711D811D911D42E0660FE2
:101BA000771F881F991F4A95D1F70895CF92DF922A
:101BB000EF92FF92CF93DF936B017C010E94B30DF4
:101BC000EB01C114D104E104F10489F00E94C018B2
:101BD0000E94B30D6C1B7D0B683E734090F381E057
:101BE000C81AD108E108F108C851DC4FEACFDF91EB
:101BF000CF91FF90EF90DF90CF900895019739F04B
:101C0000880F991F880F991F02970197F1F7089580
:101C1000789484B5826084BD84B5816084BD85B5C7
:101C2000826085BD85B5816085BDEEE6F0E080818E
:101C300081608083E1E8F0E01082808182608083AF
:101C4000808181608083E0E8F0E080818160808332
:101C5000E1E9F0E08081826080838081816080831F
:101C6000E0E9F0E0808181608083E1ECF0E0808158
:101C700084608083808182608083808181608083B2
:101C8000E3ECF0E0808181608083E0ECF0E0808133
:101C900082608083E2ECF0E0808181608083EAE70B
:101CA000F0E0808184608083808182608083808195
:101CB000816080838081806880830895823108F00C
:101CC0008251E82FF0E0E652FF4FE49180917B00D3
:101CD000E3FB222720F930E095E0220F331F9A958D
:101CE000E1F78F7D822B80937B00E7708091060166
:101CF00020E4829FC0011124E82BE0937C008091B6
:101D00007A00806480937A0080917A0086FDFCCF0F
:101D1000809178002091790090E0922B089590E0D6
:101D2000FC013197EF30F105B0F5EA5AFF4F0C9402
:101D3000031C809180008F7703C0809180008F7D8D
:101D400080938000089580918000877FF9CF84B5CB
:101D50008F7702C084B58F7D84BD089580919000F7
:101D60008F7707C0809190008F7D03C08091900095
:101D7000877F8093900008958091C0008F7703C083
:101D80008091C0008F7D8093C00008958091C20033
:101D9000877F8093C2000895CF93DF9390E0FC018A
:101DA000EC5FFE4F2491FC01EE5DFE4F8491882391
:101DB00049F190E0880F991FFC01E45AFE4FA5916C
:101DC000B491825B9E4FFC01C591D4919FB7611184
:101DD00008C0F8948C91209582238C93888182236B
:101DE0000AC0623051F4F8948C91322F30958323DD
:101DF0008C938881822B888304C0F8948C91822BE9
:101E00008C939FBFDF91CF9108950F931F93CF9332
:101E1000DF931F92CDB7DEB7282F30E0F901EA51EA
:101E2000FF4F8491F901EC5FFE4F1491F901EE5DD3
:101E3000FE4F04910023C9F0882321F069830E949A
:101E40008F0E6981E02FF0E0EE0FFF1FE25BFE4F87
:101E5000A591B4919FB7F8948C91611103C010952E
:101E6000812301C0812B8C939FBF0F90DF91CF9175
:101E70001F910F910895CF93DF93282F30E0F90140
:101E8000EA51FF4F8491F901EC5FFE4FD491F901C3
:101E9000EE5DFE4FC491CC2391F081110E948F0E14
:101EA000EC2FF0E0EE0FFF1FE05CFE4FA591B49128
:101EB0002C912D2381E090E021F480E002C080E0AD
:101EC00090E0DF91CF910895CF93DF931F92CDB72C
:101ED000DEB76983DC01ED91FC910280F381E02D96
:101EE00041E050E0BE016F5F7F4F09950F90DF9199
:101EF000CF910895CF93DF93EC018C859D8597FF5B
:101F000005C082E00E9431149D878C878C859D8559
:101F1000DF91CF91089583E00C948416FC018485B1
:101F2000958597FD06C082E00E94D91390E0019646
:101F3000089582E00E94D91390E00895FC01848501
:101F4000958597FD05C02FEF3FEF358724870895CE
:101F500082E00C943114CF93DF93EC0180910E0159
:101F6000882331F083E00E9462141816190634F0B9
:101F700081E090E09B838A8380E090E0DF91CF91C5
:101F80000895FC0120812E5F208342E450E06AE640
:101F900071E080E80C94FD14FC0181819081913AFC
:101FA00059F4813209F03CC047E050E067E071E04D
:101FB00080E00E94FD1443C0913291F5803239F4E3
:101FC00067E070E087E091E00E942E1506C0823243
:101FD00009F035C0828180930E01809107019091B4
:101FE0000801A0910901B0910A01803B9440A1052C
:101FF000B105C1F480910E0180FD14C087E797E719
:1020000090930108809300082BE088E190E00FB6E0
:10201000F894A895809360000FBE209360000FC0D5
:1020200080E0089588E10FB6F894809360001092E4
:1020300060000FBEA895109201081092000881E080
:1020400008951092A2021092A10288EE93E0A0E0FF
:10205000B0E08093A3029093A402A093A502B09352
:10206000A60283EC91E09093A00280939F028FEFF1
:102070009FEF9093AC028093AB020895FC01818D99
:10208000228D90E0805C9F4F821B91098F7399276E
:102090000895FC01918D828D981731F0828DE80FA3
:1020A000F11D858D90E008958FEF9FEF0895FC015D
:1020B000918D828D981761F0828DDF01A80FB11D7F
:1020C0005D968C91928D9F5F9F73928F90E00895A3
:1020D0008FEF9FEF08958BED91E1892B49F080E020
:1020E00090E0892B29F00E94DB1181110C940000F3
:1020F0000895FC01848DDF01A80FB11DA35ABF4FC5
:102100002C91848D90E001968F739927848FA689F6
:10211000B7892C93A089B1898C9180648C93938D1D
:10212000848D981306C00288F389E02D80818F7D0D
:1021300080830895CF93DF93EC01888D8823C9F0C5
:10214000EA89FB89808185FD05C0A889B9898C91C0
:1021500086FD0FC00FB607FCF5CF808185FFF2CF5B
:10216000A889B9898C9185FFEDCFCE010E947910A5
:10217000E7CFDF91CF910895CF92DF92FF920F9337
:102180001F93CF93DF931F92CDB7DEB76C01DC01B5
:102190005B969C915B975C968C915C97981307C0BB
:1021A0005096ED91FC915197808185FD32C0F601EA
:1021B000038D10E00F5F1F4F0F731127F02EF601F4
:1021C000848DF81211C00FB607FCF9CFD6015096D6
:1021D000ED91FC915197808185FFF1CFC601698314
:1021E0000E9479106981EBCF838DE80FF11DE35ACE
:1021F000FF4F6083D6015B960C935B975296ED91EF
:10220000FC91539780818062808381E058968C9303
:102210000DC0D6015696ED91FC915797608350966C
:10222000ED91FC91519780818064808381E090E002
:102230000F90DF91CF911F910F91FF90DF90CF9082
:102240000895BF92CF92DF92EF92FF92CF93DF93E8
:10225000EC016A017B01B22EE889F98982E0808372
:10226000411581EE580761057105A1F060E079E044
:102270008DE390E0A70196010E94C21B2150310915
:10228000410951095695479537952795211580E1C4
:10229000380798F0E889F989108260E874E88EE1DF
:1022A00090E0A70196010E94C21B2150310941090B
:1022B00051095695479537952795EC85FD853083CF
:1022C000EE85FF852083188EEC89FD89B082EA892E
:1022D000FB89808180618083EA89FB8980818860B5
:1022E0008083EA89FB89808180688083EA89FB8911
:1022F00080818F7D8083DF91CF91FF90EF90DF9081
:10230000CF90BF9008951F920F920FB60F92112495
:102310002F938F939F93EF93FF93E091FF02F091A0
:1023200000038081E0910503F091060382FD12C055
:102330009081809108038F5F8F732091090382172A
:1023400051F0E0910803F0E0E151FD4F958F80934B
:10235000080301C08081FF91EF919F918F912F9190
:102360000F900FBE0F901F9018951F920F920FB6EF
:102370000F9211242F933F934F935F936F937F930B
:102380008F939F93AF93BF93EF93FF938FEE92E062
:102390000E947910FF91EF91BF91AF919F918F9122
:1023A0007F916F915F914F913F912F910F900FBE51
:1023B0000F901F9018958FEE92E00E943E1021E042
:1023C000892B09F420E0822F08951092F2021092D6
:1023D000F10288EE93E0A0E0B0E08093F3029093E6
:1023E000F402A093F502B093F60283ED91E090938E
:1023F000F0028093EF028DEC90E09093FC028093CA
:10240000FB028CEC90E09093FE028093FD0288EC3E
:1024100090E0909300038093FF0289EC90E090930A
:102420000203809301038AEC90E09093040380936D
:1024300003038EEC90E090930603809305031092C3
:1024400008031092090310920A0310920B030895D7
:10245000AF92BF92CF92DF92EF92FF920F931F93B2
:10246000CF93DF936C017B01C0E0D0E000E010E08F
:10247000F601EC0FFD1F4AE050E06281C7010E94A7
:102480006B135C016EE2C7010E94FE128A0D9B1D58
:10249000080F191F2196C330D10551F74AE050E0CB
:1024A000F6016581C7010E946B13800F911FDF91B8
:1024B000CF911F910F91FF90EF90DF90CF90BF9041
:1024C000AF9008950F93FC0183EE91E09183808398
:1024D00062834383248305830F91089583EE91E003
:1024E00090938D0380938C0310928E0310928F0330
:1024F0001092900310929103089508950E94080E7F
:102500000E947D1282E993E00E94E4160E942B0251
:10251000CBE6D0E10E94B9032097E1F30E946B1053
:10252000F9CF0C942A1C0C942A1C0C94C21C0C94F9
:10253000C21CCF92DF92EF92FF920F931F93CF9323
:10254000DF936C017A01EB01E60EF71E00E010E06C
:10255000CE15DF0561F06991D601ED91FC910190F6
:10256000F081E02DC6010995080F191FF1CFC801B0
:10257000DF91CF911F910F91FF90EF90DF90CF905F
:1025800008956115710581F0DB010D900020E9F7D8
:10259000AD0141505109461B570BDC01ED91FC91F7
:1025A0000280F381E02D099480E090E00895EF929D
:1025B000FF920F931F93CF93DF938C01FB01C0E039
:1025C000D0E064917F018FEFE81AF80A662361F08A
:1025D000D801ED91FC910190F081E02DC8010995A1
:1025E000C80FD91FF701EDCFCE01DF91CF911F9119
:1025F0000F91FF90EF9008950C94C112DC01ED91C2
:10260000FC910190F081E02D09948F929F92AF92FE
:10261000BF92CF92DF92EF92FF920F931F93CF93CF
:10262000DF93CDB7DEB7A1970FB6F894DEBF0FBE2C
:10263000CDBF7C01C42EE52FCB01D22E19A221E003
:102640002D1510F02AE0D22E8E010F5D1F4F8D2C1C
:10265000912CA12CB12C6C2D7E2FA50194010E94F0
:10266000C21B8C2DD29E80191124015011098A3071
:1026700014F4805D01C0895CF80180832115310567
:102680004105510521F0C22EE32FCA01E4CFB80164
:10269000C7010E94C112A1960FB6F894DEBF0FBE0B
:1026A000CDBFDF91CF911F910F91FF90EF90DF9001
:1026B000CF90BF90AF909F908F90089521153105D6
:1026C00041F4DC01ED91FC910190F081E02D642F4B
:1026D00009940C9405139A01462F50E060E070E0D5
:1026E0000C945E13409196035091970320919403AC
:1026F0003091950342175307B4F49091E800957018
:10270000E1F39091E80092FD19C08093F10080916F
:1027100096039091970301968F739927892B19F44B
:102720008EEF8093E8008091960390919703019635
:10273000909397038093960381E0089580E0089535
:10274000FF920F931F93CF93DF938C0188E10E9438
:10275000721383E00E947213C0E0D0E0F801EC0F26
:10276000FD1F84910E947213F82E80E00E94721364
:102770008F2121F02196CB30D10581F7DF91CF91C8
:102780001F910F91FF900895615030F02091F1005A
:10279000FC0120830196F8CF289884E68093990362
:1027A00008952FB7FC012083F89467706093E900C7
:1027B0000895CF93DF931F92CDB7DEB7682FCE0178
:1027C00001960E94D1138091F20099819FBF0F90D2
:1027D000DF91CF910895FF920F931F93CF93DF93D3
:1027E00000D0CDB7DEB7F62E8A01909198039923D9
:1027F00011F057FF03C08FEF9FEF2BC0682FCE0162
:1028000001967A830E94D1138091F20090E0A80192
:102810007A81801791070CF4AC01EF2DF72FF40E9D
:1028200084E6FE1639F02898809399039091F10080
:102830009193F7CF4115510521F08091F200882343
:1028400021F089818FBFCA0104C08BE68093E80024
:10285000F8CF0F900F90DF91CF911F910F91FF90C4
:102860000895CF93DF931F92CDB7DEB741E050E0DC
:10287000BE016F5F7F4F0E94EB13019719F48981AE
:1028800090E002C08FEF9FEF0F90DF91CF910895FE
:10289000CF93DF931F92CDB7DEB7682FCE0101969D
:1028A0000E94D1139091E800892F807295FF04C097
:1028B0009091F20080E4891B99819FBF0F90DF9176
:1028C000CF9108956F927F928F929F92AF92BF9215
:1028D000CF92DF92EF92FF920F931F93CF93DF93EC
:1028E0001F92CDB7DEB7782E7B01C42EB52E809116
:1028F0009803882369F0042F152F8AEFD82E872D8F
:102900008072982E9AE3A92E872D8074882E11C08C
:102910008FEF9FEF57C0872D0E944814682E8111BA
:102920000CC0DA94A9F361E070E080E090E00E94CE
:10293000D60D0115110579F73BC0282F30E002179D
:1029400013070CF4602E672DCE0101960E94D1135F
:102950008091E80085FF29C0262D30E0021B130B73
:10296000992039F06A948FEF6816B1F01092F10057
:10297000F9CFF701862D77FE07C0815058F094916A
:102980009093F1003196F9CF815020F0919190937E
:10299000F100FACFE20EF31E8091E80085FF0FC030
:1029A0000115110511F481100AC089818FBFC1CFB3
:1029B0005D9884E680939A038C2D9B2D03C0A09292
:1029C000E800F3CF0F90DF91CF911F910F91FF900F
:1029D000EF90DF90CF90BF90AF909F908F907F90BF
:1029E0006F9008951092E900109297031092960349
:1029F00090939503809394030895CF92DF92FF9272
:102A00000F931F93CF93DF9300D0CDB7DEB7F82E8F
:102A10008A016B0101151105B1F0F601F7FE02C044
:102A2000849101C0808149835A830E9472130150AE
:102A30001109FFEFCF1ADF0A49815A818111EACFCC
:102A40008FEF9FEF01C0CA010F900F90DF91CF91E0
:102A50001F910F91FF90DF90CF9008951F93CF9318
:102A6000DF931F92CDB7DEB7162F2091E80022FF2B
:102A7000FCCF612F79830E94C4138BEF8093E80011
:102A8000812F7981972F0F90DF91CF911F9108951A
:102A9000CF93DF931F92CDB7DEB71982CE01019697
:102AA0000E94C10FCE0101960E94DF18898190E03B
:102AB0000F90DF91CF9108951F920F920FB60F9252
:102AC0001124EF92FF920F931F932F933F934F93F5
:102AD0005F936F937F938F939F93AF93BF93EF9386
:102AE000FF93CF93DF93CDB7DEB76297DEBFCDBF45
:102AF0001092E9008091E80083FFE9C068E0CE0110
:102B00000A960E94C41382EF8093E8009A8597FF8B
:102B100005C08091E80080FFFCCF03C08EEF80935A
:102B2000E800892F807609F0B7C08B85811105C038
:102B30001092F1001092F100C3C0282F2D7F213098
:102B400009F4BEC0853049F48091E80080FFFCCFD5
:102B50008C8580688093E300B3C0863009F074C030
:102B60002D85E888F988223071F580E090E02A8B85
:102B70000E94F2140E94481599E08E010F5F1F4FCA
:102B8000F801392F11923A95E9F799832A892A8316
:102B900091E09E8390E898879AEF99872091960319
:102BA00030919703275F3F4F3C832B838D83C70171
:102BB0000E94F21449E050E0B80180E00E94FD1448
:102BC0000E9448157DC0C7012A8B0E94F2142A89F1
:102BD000223241F482E290E00E94EA18892B09F047
:102BE0006FC072C0213069F488899989089711F4FF
:102BF0002093930380919303811116C063EC71E0DD
:102C000018C0233009F060C08C85882381F08230A1
:102C100019F481EE91E005C0813009F055C085EDD1
:102C200091E00E94A0134AC061EB71E002C06DEE1A
:102C300071E06115710509F447C0FB01449150E052
:102C400080E80E94FD143CC0873009F43DC0883004
:102C500021F481E08093F10033C0893089F59370CD
:102C600099F5EDEAF1E081E021E096E38093E90057
:102C70002093EB0034913093EC009093ED008F5F44
:102C80003196853099F78EE78093EA001092EA003A
:102C90008C858093980314C0888999890E94F214C6
:102CA0008E85811105C0CE010A960E94CC0F06C008
:102CB000823051F4CE010A960E941219882321F025
:102CC0008EEF8093E80003C081E28093EB00629670
:102CD0000FB6F894DEBF0FBECDBFDF91CF91FF914D
:102CE000EF91BF91AF919F918F917F916F915F9184
:102CF0004F913F912F911F910F91FF90EF900F9067
:102D00000FBE0F901F9018958093E9008091F200FC
:102D1000882319F08AE38093E80008951F920F92A8
:102D20000FB60F9211242F933F934F935F936F939E
:102D30007F938F939F93AF93BF93EF93FF93809174
:102D4000E1001092E10083FF0FC01092E90091E0D2
:102D50009093EB001092EC0092E39093ED001092B0
:102D6000980398E09093F00082FF1DC083E00E94DA
:102D7000841680919A03882339F080919A038150B8
:102D800080939A03882369F080919903882359F0EE
:102D900080919903815080939903811104C0289AEE
:102DA00002C05D9AF1CFFF91EF91BF91AF919F91DA
:102DB0008F917F916F915F914F913F912F910F90E4
:102DC0000FBE0F901F9018951092980381E080938A
:102DD000D70080EA8093D80082E189BD09B400FE63
:102DE000FDCF61E070E080E090E00E94D60D80E9C8
:102DF0008093D8008CE08093E2001092E000559A16
:102E0000209A0895FC01808191810C94C21CCF937B
:102E1000DF93EC0188819981009711F00E94C21C18
:102E2000198218821D821C821B821A82DF91CF9127
:102E300008950F931F93CF93DF93EC018B016F5F86
:102E40007F4F888199810E94511D009731F09983AD
:102E500088831B830A8381E001C080E0DF91CF91EA
:102E60001F910F910895CF93DF93EC018881998191
:102E7000892B29F08A819B818617970760F4CE0100
:102E80000E941917882341F08C819D81892B19F4A8
:102E9000E881F981108281E0DF91CF910895EF926E
:102EA000FF920F931F93CF93DF93EC017B018A0175
:102EB000BA010E943317811104C0CE010E94071786
:102EC00007C01D830C83B701888199810E94241E4D
:102ED000CE01DF91CF911F910F91FF90EF90089558
:102EE000FC011182108213821282158214826115F4
:102EF000710559F0FB0101900020E9F7AF01415045
:102F00005109461B570B0C944F170895CF93DF932D
:102F1000EC01FB018617970761F0608171816115F3
:102F2000710529F0448155810E944F1702C00E940B
:102F30000717CE01DF91CF910895FC011182108215
:102F400013821282158214820C948617EF92FF92DC
:102F50000F931F93CF93DF93EC017B010C811D81B5
:102F60006115710511F480E016C04115510591F00D
:102F7000040F151FB8010E9433178823A1F328817D
:102F800039818C819D81B701820F931F0E94241E7D
:102F90001D830C8381E0DF91CF911F910F91FF90F2
:102FA000EF900895FB0144815581608171810C94FB
:102FB000A6176115710559F0FB0101900020E9F792
:102FC000AF0141505109461B570B0C94A61780E0E6
:102FD0000895CF93DF9300D0CDB7DEB769831A820F
:102FE00041E050E0BE016F5F7F4F0E94A6170F9037
:102FF0000F90DF91CF910895EF92FF920F931F935F
:10300000CF93DF93CDB7DEB728970FB6F894DEBF26
:103010000FBECDBF7C01CB014AE050E08E010F5FB7
:103020001F4FB8010E942B1EF80101900020E9F704
:10303000AF0141505109401B510BB801C7010E941B
:10304000A61728960FB6F894DEBF0FBECDBFDF914E
:10305000CF911F910F91FF90EF900895EF92FF9203
:103060000F931F93CF93DF93CDB7DEB72E970FB695
:10307000F894DEBF0FBECDBF7C01CB01BA012AE0C0
:1030800030E08E010F5F1F4FA8010E94411EF80122
:1030900001900020E9F7AF0141505109401B510B4D
:1030A000B801C7010E94A6172E960FB6F894DEBF8E
:1030B0000FBECDBFDF91CF911F910F91FF90EF9089
:1030C0000895EF92FF920F931F93CF93DF93CDB7A5
:1030D000DEB764970FB6F894DEBF0FBECDBF7C019C
:1030E000CB01BA018E010F5F1F4F22E044E00E9426
:1030F000091CFC0101900020E9F7AF014150510982
:10310000481B590BBC01C7010E94A61764960FB655
:10311000F894DEBF0FBECDBFDF91CF911F910F910D
:10312000FF90EF900895CF93DF93EC01FB01448172
:103130005581608171810E94A617811103C0CE0163
:103140000E940717CE01DF91CF910895CF93DF93AF
:10315000EC016115710569F0FB0101900020E9F7B0
:10316000AF0141505109461B570B0E94A617811110
:1031700003C0CE010E940717CE01DF91CF910895C1
:103180000895FF920F931F93CF93DF93EC01F62ED8
:10319000E881F9810480F581E02D09958C01E881B1
:1031A000F9810680F781E02D6F2DCE010995C801C8
:1031B0009927DF91CF911F910F91FF900895FC0106
:1031C00020812F5F208349E150E061E772E080E8D1
:1031D0000C94FD1445E650E06AE872E080E80C9437
:1031E000FD14EF92FF920F931F93CF93DF931F92E3
:1031F000CDB7DEB789838B017A0141E050E0BE0193
:103200006F5F7F4F84E00E946214A701B80184E4DD
:103210000E9462140F90DF91CF911F910F91FF9048
:10322000EF900895FC0191818081813A31F481E031
:10323000913091F0933089F411C0813271F49B3058
:1032400021F482818093100105C09A3031F482818B
:1032500080930F0181E00895089580E0089548E08B
:1032600050E082E00C94F118CF93DF93DC016838D2
:1032700018F0E8E7E60F25C0E62FF0E067FF11C081
:10328000E058F10981E090E001C0880FEA95EAF783
:1032900014969C911497982B14969C931497E0E0A5
:1032A00010C0EF50FE4FE491EE2309F440C0E7FF59
:1032B00008C014968C911497826014968C9314977E
:1032C000EF7716968C9116978E1741F117968C9181
:1032D00017978E1719F118968C9118978E17F1F091
:1032E00019968C9119978E17C9F01A968C911A9786
:1032F0008E17A1F01B968C911B978E1779F080E0AA
:1033000090E0ED01C80FD91F2E81211102C0EE837C
:1033100005C0019686309105A1F709C0BD016C5F1B
:103320007F4FCD010E942F1981E090E008C081E01D
:1033300090E013969C938E93129780E090E0DF913B
:10334000CF910895683818F0E8E7E60F25C0E62F1A
:10335000F0E067FF12C0E058F10921E030E001C061
:10336000220FEA95EAF72095DC0114963C91149718
:10337000322314963C93E0E00FC0EF50FE4FE491EF
:10338000EE2329F1E7FF08C0DC0114962C91149775
:103390002D7F14962C93EF7720E030E0EE2351F050
:1033A000DC01A20FB31F16964C9116974E1302C064
:1033B00016961C922F5F3F4F2630310579F7BC01DE
:1033C0006C5F7F4F0E942F1981E090E0089580E0AC
:1033D00090E00895FC0116821782108611861286ED
:1033E00013861482BC016C5F7F4F0C942F191092CE
:1033F000A70310929E0310929D0389EE91E0909393
:103400009C0380939B0308955058BB27AA270ED096
:103410001CC10DD130F012D120F031F49F3F11F4D6
:103420001EF402C10EF4E095E7FBF8C0E92F1ED1AF
:1034300080F3BA17620773078407950718F071F4D1
:103440009EF536C10EF4E0950B2EBA2FA02D0B0180
:10345000B90190010C01CA01A0011124FF27591BD9
:1034600099F0593F50F4503E68F11A16F040A22FDF
:10347000232F342F4427585FF3CF46953795279550
:10348000A795F0405395C9F77EF41F16BA0B620B4F
:10349000730B840BBAF09150A1F0FF0FBB1F661F96
:1034A000771F881FC2F70EC0BA0F621F731F841FD9
:1034B00048F4879577956795B795F7959E3F08F0FF
:1034C000B3CF9395880F08F09927EE0F97958795BE
:1034D00008950CD0BAC0B2D040F0A9D030F021F499
:1034E0005F3F19F09BC05111E4C09EC0BFD098F35C
:1034F0009923C9F35523B1F3951B550BBB27AA2775
:1035000062177307840738F09F5F5F4F220F331FE6
:10351000441FAA1FA9F333D00E2E3AF0E0E830D0B2
:1035200091505040E695001CCAF729D0FE2F27D0B5
:10353000660F771F881FBB1F261737074807AB0783
:10354000B0E809F0BB0B802DBF01FF2793585F4FF8
:103550002AF09E3F510568F061C0ABC05F3FECF3BD
:10356000983EDCF3869577956795B795F7959F5FBD
:10357000C9F7880F911D9695879597F90895E1E011
:10358000660F771F881FBB1F621773078407BA0770
:1035900020F0621B730B840BBA0BEE1F88F7E095CB
:1035A0000895E89409C097FB3EF490958095709536
:1035B00061957F4F8F4F9F4F9923A9F0F92F96E97F
:1035C000BB279395F695879577956795B795F111F4
:1035D000F8CFFAF4BB0F11F460FF1BC06F5F7F4F91
:1035E0008F4F9F4F16C0882311F096E911C07723A3
:1035F00021F09EE8872F762F05C0662371F096E8AC
:10360000862F70E060E02AF09A95660F771F881F7A
:10361000DAF7880F9695879597F9089597F99F6738
:1036200080E870E060E008959FEF80EC089500244A
:103630000A941616170618060906089500240A9417
:1036400012161306140605060895092E0394000C9D
:1036500011F4882352F0BB0F40F4BF2B11F460FF2C
:1036600004C06F5F7F4F8F4F9F4F089557FD905855
:10367000440F551F59F05F3F71F04795880F97FB36
:10368000991F61F09F3F79F08795089512161306F0
:103690001406551FF2CF4695F1DF08C0161617061F
:1036A0001806991FF1CF8695710561050894089554
:1036B000E894BB2766277727CB0197F908950BD0AD
:1036C000C4CFB5DF28F0BADF18F0952309F0A6CFF4
:1036D000ABCF1124EECFCADFA0F3959FD1F3950FA6
:1036E00050E0551F629FF001729FBB27F00DB11D86
:1036F000639FAA27F00DB11DAA1F649F6627B00D16
:10370000A11D661F829F2227B00DA11D621F739FFE
:10371000B00DA11D621F839FA00D611D221F749F0C
:103720003327A00D611D231F849F600D211D822F53
:10373000762F6A2F11249F5750408AF0E1F088239A
:103740004AF0EE0FFF1FBB1F661F771F881F9150A7
:103750005040A9F79E3F510570F060CFAACF5F3F60
:10376000ECF3983EDCF3869577956795B795F795DA
:10377000E7959F5FC1F7FE2B880F911D9695879562
:1037800097F90895A1E21A2EAA1BBB1BFD010DC0DB
:10379000AA1FBB1FEE1FFF1FA217B307E407F50701
:1037A00020F0A21BB30BE40BF50B661F771F881FDD
:1037B000991F1A9469F760957095809590959B0173
:1037C000AC01BD01CF010895052E97FB1EF40094B6
:1037D0000E94FB1B57FD07D00E94C21B07FC03D0B1
:1037E0004EF40C94FB1B50954095309521953F4F1E
:1037F0004F4F5F4F089590958095709561957F4FDD
:103800008F4F9F4F0895EE0FFF1F0590F491E02D0D
:103810000994EF920F931F93CF93DF93E80147FF33
:1038200002C034E101C034E0E42FFF27E7FDF0954A
:10383000F7FF03C0F195E195F109E32E022F2E2F3A
:10384000AE010E94971ECE01DF91CF911F910F9183
:10385000EF900895CF93DF938230910510F482E0CA
:1038600090E0E091AA03F091AB0320E030E0A0E00B
:10387000B0E0309739F14081518148175907B8F0CD
:103880004817590771F482819381109729F0139694
:103890009C938E9312972CC09093AB038093AA03B2
:1038A00027C02115310531F04217530718F0A9013F
:1038B000DB0101C0EF019A01BD01DF010280F3814C
:1038C000E02DD7CF21153105F9F0281B390B243015
:1038D000310580F48A819B816115710521F0FB011E
:1038E0009383828304C09093AB038093AA03FE0169
:1038F000329644C0FE01E20FF31F81939193225050
:103900003109398328833AC02091A8033091A90353
:10391000232B41F420910201309103013093A9033C
:103920002093A80320910001309101012115310558
:1039300041F42DB73EB74091040150910501241B7D
:10394000350BE091A803F091A903E217F307A0F467
:103950002E1B3F0B2817390778F0AC014E5F5F4FE5
:103960002417350748F04E0F5F1F5093A90340936B
:10397000A8038193919302C0E0E0F0E0CF01DF91D2
:10398000CF910895CF93DF93009709F487C0FC018E
:10399000329713821282C091AA03D091AB03209771
:1039A00081F420813181280F391F8091A8039091E3
:1039B000A9038217930779F5F093A903E093A8036D
:1039C0006DC0DE0120E030E0AE17BF0750F4129664
:1039D0004D915C9113979D014115510509F1DA0153
:1039E000F3CFB383A28340815181840F951F8A173F
:1039F0009B0771F48D919C911197840F951F0296EE
:103A00009183808312968D919C91139793838283E7
:103A10002115310529F4F093AB03E093AA033EC0CE
:103A2000D9011396FC93EE9312974D915D91A40FDB
:103A3000B51FEA17FB0779F480819181840F951FE8
:103A40000296D90111969C938E938281938113964D
:103A50009C938E931297E0E0F0E08A819B8100971F
:103A600019F0FE01EC01F9CFCE01029628813981CF
:103A7000820F931F2091A8033091A90328173907BB
:103A800069F4309729F41092AB031092AA0302C094
:103A900013821282D093A903C093A803DF91CF9120
:103AA0000895A0E0B0E0E7E5FDE10C940121EC0110
:103AB000CB01209719F40E942A1CB8C0FE01E60F22
:103AC000F71F9E0122503109E217F30708F4ACC03A
:103AD000D9010D911C91119706171707B8F0053001
:103AE000110508F49FC0A801445051094617570713
:103AF00008F498C002501109061B170B019311938B
:103B00006D937C93CF010E94C21C8CC05B01A01AF4
:103B1000B10A4E01800E911EA091AA03B091AB0391
:103B2000612C712C60E070E0109709F449C0A81571
:103B3000B905C9F5ED90FC901197670142E0C40EFC
:103B4000D11CCA14DB0478F147018A189B08640170
:103B500042E0C40ED11C1296BC9012971396AC9101
:103B6000B5E0CB16D10440F0B282A383918280826B
:103B7000D9018D939C9309C00E5F1F4F0E0D1F1D21
:103B8000F90111830083EB2DFA2F6115710531F0D6
:103B9000DB011396FC93EE93129744C0F093AB03B2
:103BA000E093AA033FC06D917C911197661677064A
:103BB00008F43B01BD0112960D90BC91A02DB4CF2D
:103BC0006091A8037091A90368157905E9F4681656
:103BD0007906D0F440910001509101014115510541
:103BE00041F44DB75EB76091040170910501461B29
:103BF000570BE417F507C0F4F093A903E093A8036B
:103C0000F901918380830EC00E942A1C7C010097D9
:103C100059F0A801BE010E941B1ECE010E94C21CC9
:103C2000C70104C0CE0102C080E090E0CDB7DEB78E
:103C3000EEE00C941D21FB01DC0102C001900D920D
:103C400041505040D8F70895FB01DC0101900D92DE
:103C50000020E1F708954532510520F4423010F07C
:103C60000C94361EFB011082CB010895BB274A300D
:103C700031F4992322F4BDE2909581959F4F0C94E5
:103C80007E1E2532310520F4223010F00C944C1E9B
:103C9000FA011082CA010895BB272A3051F49923F2
:103CA00042F4BDE290958095709561957F4F8F4F5E
:103CB0009F4F0C945C1EBB27FA01A62F621771055B
:103CC00081059105330B30FB66F0AA27660F771F3D
:103CD000881F991FAA1FA21710F0A21B63953850C6
:103CE000A9F7A05DAA3308F0A95DA19336F7B11139
:103CF000B1931082CA010C94ED20BB27FB0155271C
:103D0000AA27880F991FAA1FA41710F0A41B839538
:103D10005051B9F7A05DAA3308F0A95DA1930097AF
:103D200079F7B111B1931192CB010C94ED206F9200
:103D30007F929F92AF92BF92CF92DF92EF92FF92CB
:103D40000F931F93CF93DF93CDB7DEB729970FB6AD
:103D5000F894DEBF0FBECDBF6A01B22E102F0C3318
:103D600020F4FF24F394F00E02C04CE3F42E0F2D48
:103D700027E0AE014F5F5F4F0E9415207981272F0A
:103D80002970213031F0E1FC06C0E0FC06C060E0A3
:103D900005C06DE203C06BE201C060E2AE2DA07110
:103DA00073FF36C0662311F084E001C083E08B15F9
:103DB00010F4B81A01C0B12CA1110BC0F6018B2D63
:103DC00090E2882319F091938150FBCFCB0CD11C4A
:103DD000B12C662331F0F601608396012F5F3F4FCF
:103DE0006901C6010396E2FE05C02EE4F6012083B8
:103DF00031E404C02EE6F601208331E631832283CC
:103E0000FC012B2D30E22223F1F131932150FBCF25
:103E100072FF40C0662311F084E001C083E08B157F
:103E200010F4B81A01C0B12CA1110BC0F6018B2DF2
:103E300090E2882319F091938150FBCFCB0CD11CD9
:103E4000B12C662331F0F601608396012F5F3F4F5E
:103E50006901C6010396E2FE07C029E4F60120834A
:103E60002EE4218326E406C029E6F60120832EE60F
:103E7000218326E62283FC012B2D30E2222319F038
:103E800031932150FBCFFC01EB0DF11D10828EEF21
:103E90009FEFB7C0B1E0611101C0B0E04B2F50E01F
:103EA0001816190624F49C012F5F3F4F02C021E031
:103EB00030E0240F351F112329F0412F50E04F5FD0
:103EC0005F4F02C040E050E0420F531F2B2D30E007
:103ED0004217530714F4B41A01C0B12C2E2D2871C7
:103EE00059F4F6012B2D30E2222319F031932150A1
:103EF000FBCFCB0CD11CB12CBB2331F0F60160837E
:103F000096012F5F3F4F6901A1110BC0F6012B2DC8
:103F100030E3222319F031932150FBCFCB0CD11C7D
:103F2000B12CF80E0A81372F3071A32E74FF03C015
:103F3000013309F4FA941F142CF42F2D293018F0B2
:103F400028E001C021E0682F392F97FF02C060E010
:103F500030E0462F532F612C712C3EE2932EBC0192
:103F6000621B71099B01DC01A41BB50BE1E0F0E0D1
:103F7000EC0FFD1FAE0FBF1FE12EF12CF194E19469
:103F8000F1084F3FFFEF5F0731F4F6019082B60171
:103F90006F5F7F4F6B01841795074CF0241735072F
:103FA00034F4BD01660D771DFB01118101C010E3E2
:103FB00041505109FFEF6F1A7F0AB6016F5F7F4FC3
:103FC0004E155F0524F0F60110836B01DACF481718
:103FD000590739F4063320F4053319F4A11001C050
:103FE00011E3F6011083FB018B2D90E2882319F079
:103FF00091938150FBCFFB01EB0DF11D108280E00E
:1040000090E029960FB6F894DEBF0FBECDBFDF91CA
:10401000CF911F910F91FF90EF90DF90CF90BF90C5
:10402000AF909F907F906F900895283008F027E020
:104030003327DA01990F311D87FD916000966105E4
:10404000710539F432602E5F3D9330E32A95E1F734
:1040500008959F3F30F080387105610509F03C5F9D
:104060003C5F3D93913008F08068911DDF93CF93C2
:104070001F930F93FF92EF92192F987F9695E92F38
:1040800096959695E90FFF27E75BFC4F9927332715
:10409000EE24FF24A701E70105900894079428F473
:1040A000360FE71EF81E491F511D660F771F881F28
:1040B000991F0694A1F70590079428F4E70EF81EBF
:1040C000491F561FC11D770F881F991F661F069431
:1040D000A1F70590079428F4F80E491F561FC71F33
:1040E000D11D880F991F661F771F0694A1F70590B1
:1040F000079420F4490F561FC71FD81F990F661F3A
:10410000771F881F0694A9F784911095177041F0C6
:10411000D695C79557954795F794E7941A95C1F7A3
:10412000EFEEF2E0689415901591359165919591B7
:1041300005907FE27395E118F10A430B560BC90B0A
:10414000D009C0F7E10CF11E431F561FC91FD01D37
:104150007EF4703311F48A95E6CFE894015030F084
:10416000080F0AF40027021708F4202F2395022FC6
:104170007A3328F079E37D932A95E9F710C07D938F
:104180002A9589F60694979567953795179517940C
:10419000E118F10A430B560BC90BD00998F023958F
:1041A0007E9173957A3308F070E37C932013B8F70F
:1041B0007E9170617D9330F0839571E37D9370E320
:1041C0002A95E1F71124EF90FF900F911F91CF9165
:1041D000DF91992787FD90950895DC01FC01672FF9
:1041E00071917723E1F7329704C07C916D937083CE
:1041F0006291AE17BF07C8F308952F923F924F9276
:104200005F926F927F928F929F92AF92BF92CF9266
:10421000DF92EF92FF920F931F93CF93DF93CDB76F
:10422000DEB7CA1BDB0B0FB6F894DEBF0FBECDBFE7
:1042300009942A88398848885F846E847D848C84B8
:104240009B84AA84B984C884DF80EE80FD800C81C1
:104250001B81AA81B981CE0FD11D0FB6F894DEBFA4
:104260000FBECDBFED01089514E0C0E0D4E004C05E
:10427000FE010E94051C2296C230D107C9F7F894AE
:02428000FFCF6E
:104282000000AC0380000100E1000000000000011A
:1042920001585858585858583130306563686F2063
:1042A200270027203E3E20002F6D6E742F7364611D
:1042B200312F53445F412F636F6C6C6563746F726F
:1042C2002E707920002F6D6E742F736461312F531D
:1042D200445F412F706C6F74746572412E70790067
:1042E20064617465002B25442C2554002F6D6E7477
:1042F2002F736461312F53445F412F646174616C89
:104302006F672E74787400000000001F085F083188
:10431200093B095509C808FE002F62696E2F6173B7
:1043220068002D6300000000009A099912EF09F954
:1043320009110A990952656164206661696C00007D
:10434200000000640FAB0F8E0F9E0F7A0F8B0F00D1
:10435200000000BC1099123E10571049109A10002C
:10436200000000281200000000C11899123419A29E
:0443720019EA19002B
:00000001FF
