:100000000C9402020C942A020C942A020C942A02E8
:100010000C942A020C942A020C942A020C942A02B0
:100020000C942A020C942A020C942D170C94FB15A4
:100030000C942A020C942A020C942A020C942A0290
:100040000C942A020C942A020C942A020C942A0280
:100050000C942A020C942A020C942A020C94FC0D93
:100060000C942A020C9422120C9454120C942A021E
:100070000C942A020C942A020C942A020C942A0250
:100080000C942A020C942A020C942A020C942A0240
:100090000C942A020C942A020C942A020C942A0230
:1000A0000C942A020C942A020C942A02460F490F3F
:1000B000380F3C0F420F6A0F6A0F6A0F4D0F510F36
:1000C000550F5B0F5F0F6A0F650F72756E2D6272B1
:1000D000696467650A000A000A0007060504010052
:1000E000080A0B0C0D090000000200090F000003B4
:1000F0000401000C000000000000000000000000EF
:1001000000000000040802011040804010204080E0
:10011000408008020401804020100201108010205D
:100120004040040404040403040502020202040320
:100130000202020206060606060604040202020481
:10014000000000002300260029002C002F000000E2
:100150000000250028002B002E00310000000000C8
:10016000240027002A002D003000080B00020202A4
:100170000100090400000102020000052400100132
:1001800005240101010424020605240600010705D7
:10019000810310004009040100020A000000070565
:1001A00002024000000705830240000000C1808178
:1001B000C112010002020000404123418000010100
:1001C00002000112010002000000404123418000B2
:1001D000010102000141726475696E6F204C4C434D
:1001E0000041726475696E6F2059756E00040309D1
:1001F0000400000000000000002A2B28000000007E
:1002000000000000000000000000000000000000EE
:10021000002C9EB4A0A1A2A434A6A7A5AE362D376B
:1002200038271E1F20212223242526B333B62EB7BC
:10023000B89F8485868788898A8B8C8D8E8F9091D4
:1002400092939495969798999A9B9C9D2F3130A361
:10025000AD350405060708090A0B0C0D0E0F101129
:1002600012131415161718191A1B1C1DAFB1B0B5AF
:10027000000904020001030000000921010100013E
:100280002265000705840340000105010902A10160
:100290000901A1008501050919012903150025019E
:1002A00095037501810295017505810305010930EA
:1002B000093109381581257F750895038106C0C06D
:1002C00005010906A1018502050719E029E71500C6
:1002D0002501750195088102950175088103950630
:1002E0007508150025650507190029658100C000FE
:1002F000407A10F35A00A0724E18090010A5D4E8F5
:100300000000E87648170000E40B54020000CA9A87
:100310003B000000E1F505000080969800000040D9
:10032000420F000000A0860100000010270000001E
:1003300000E803000000006400000000000A000064
:100340000000000100000000002C76D888DC674F18
:100350000823DFC1DFAE59E1B1B796E5E3E453C648
:100360003AE651997696E8E6C28426EB898C9B6240
:10037000ED407C6FFCEFBC9C9F40F2BAA56FA5F4EA
:1003800090055A2AF75C936B6CF9676DC11BFCE012
:10039000E40D47FEF520E6B500D0ED902E03009465
:1003A0003577050080841E080000204E0A000000FA
:1003B000C80C333333330F986E12831141EF8D2104
:1003C00014893BE65516CFFEE6DB18D1844B381B6B
:1003D000F77C1D901DA4BBE424203284725E228130
:1003E00000C9F124ECA1E53D27005F058108200A42
:1003F0002A0A310A4D0C580CC01084120D13A11A90
:100400007805240A11241FBECFEFDAE0DEBFCDBF8E
:1004100011E0A0E0B1E0EEE4F4E402C005900D923A
:10042000A03EB107D9F723E0A0EEB1E001C01D92D4
:10043000AA3AB207E1F713E0C0E0D4E004C0229783
:10044000FE010E94AF1CCA3ED107C9F70E941D13CE
:100450000C941A220C94000080EE91E00E94A117E7
:1004600088EE91E00E94A1178EEE91E00C94A11706
:10047000EF92FF920F931F93CF93DF93CDB7DEB729
:10048000CB55D1090FB6F894DEBF0FBECDBF7C01AE
:100490008B011C821B8248EE53E060E070E04D83CC
:1004A0005E836F83788785E991E09A83898382E60A
:1004B00092E09E878D871B8A1C8A1D8A6BE171E002
:1004C000CE018A5A9F4F0E940F18B701CE018A5A57
:1004D0009F4F0E94321962E271E00E944519B801F3
:1004E0000E943219BC01CE0101960E94370CCE0148
:1004F0008A5A9F4F0E94A117CE0101960E94390B84
:100500008111FACFCE0101960E94CC0BC55ADF4F64
:100510000FB6F894DEBF0FBECDBFDF91CF911F9114
:100520000F91FF90EF9008950F931F93CF93DF9358
:10053000CDB7DEB7CB55D1090FB6F894DEBF0FBEED
:10054000CDBF8C011C821B8248EE53E060E070E05E
:100550004D835E836F83788785E991E09A838983F1
:1005600082E692E09E878D871B8A1C8A1D8A68EE30
:1005700071E0CE018A5A9F4F0E943C1866E271E0FA
:10058000CE018A5A9F4F0E944519B8010E94321924
:10059000BC01CE0101960E94370CCE018A5A9F4FB2
:1005A0000E94A117CE0101960E94390B8111FACF4A
:1005B000CE0101960E94CC0BC55ADF4F0FB6F894BE
:1005C000DEBF0FBECDBFDF91CF911F910F91089578
:1005D0000F931F93CF93DF93CDB7DEB7CB55D109E0
:1005E0000FB6F894DEBF0FBECDBF8C0167E271E09D
:1005F0000E940F181C821B8248EE53E060E070E0FE
:100600004D835E836F83788785E991E09A83898340
:1006100082E692E09E878D871B8A1C8A1D8A68E28B
:1006200071E0CE018A5A9F4F0E940F18BE016A5A8C
:100630007F4FCE0101960E94D30BCE018A5A9F4F65
:100640000E94A1176DE271E0CE018A5A9F4F0E946D
:100650000F18BE016A5A7F4FCE0101960E94C30A4D
:10066000CE018A5A9F4F0E94A117CE0101960E9487
:100670008C0BCE0101960E948E0A181619065CF4A6
:10068000CE0101960E94980A8A3099F3682FC8011A
:100690000E948818EECFCE0101960E94CC0BC801B3
:1006A000C55ADF4F0FB6F894DEBF0FBECDBFDF9146
:1006B000CF911F910F910895EF92FF920F931F9387
:1006C000CF93DF93CDB7DEB762970FB6F894DEBF56
:1006D0000FBECDBF67E271E0CE010D960E940F18EC
:1006E000CE0101960E94E802BE016F5F7F4FCE01EE
:1006F0000D960E947118CE0101960E94A1176CE21E
:10070000CE010D960E94881882E10E94FD0EBC0168
:10071000CE010D960E949B186CE2CE010D960E94B0
:10072000881884E10E94FD0EBC01CE010D960E9446
:100730009B186CE2CE010D960E94881888EBE82E7B
:100740008BE0F82E83E10E94FD0EBC01882777FD27
:100750008095982F0091F4011091F5012091F601F8
:100760003091F701600F711F821F931F6093F40196
:100770007093F5018093F6019093F70121E0E21A5E
:10078000F10801F728EB3BE040E050E00E948E1CAE
:10079000BA01A901CE010D960E94CD186CE2CE01DE
:1007A0000D960E9488181092F4011092F501109293
:1007B000F6011092F70188EF91E00E94A20DAB01C3
:1007C000BC01CE010D960E9400196CE2CE010D967F
:1007D0000E94881860E088EF91E00E94280D20E0D8
:1007E00030E040E850E40E94AE1AAB01BC01CE01FB
:1007F0000D960E9400196EEE71E0CE0101960E94E6
:100800003C18BE01635F7F4FCE0107960E943C18E3
:10081000BE016F5F7F4FCE0107960E943802CE0166
:1008200007960E94A117CE0101960E94A117BE0152
:10083000635F7F4FCE0101960E943C18CE01019666
:100840000E949402CE0101960E94A11761E08DE002
:100850000E94A40F64E670E080E090E00E94750EB4
:1008600060E08DE00E94A40F64E670E080E090E01C
:100870000E94750E6091E6017091E701882777FD6F
:100880008095982F0E94750ECE010D960E94A1179B
:1008900062960FB6F894DEBF0FBECDBFDF91CF9149
:1008A0001F910F91FF90EF900895EF92FF920F9399
:1008B0001F93CF93DF93CDB7DEB7CC55D1090FB6D9
:1008C000F894DEBF0FBECDBF8C017B011C821B8262
:1008D00048EE53E060E070E04D835E836F8378877D
:1008E00085E991E09A83898382E692E09E878D87ED
:1008F0001B8A1C8A1D8A67E271E0C8010E940F18DA
:1009000060EE71E0CE018A5A9F4F0E943C18B701F9
:10091000CE018A5A9F4F0E943219BC01CE01019626
:100920000E94370CCE018A5A9F4F0E94A117CE0118
:1009300001960E94390B8111FACFF12CCE0101965C
:100940000E948E0A18161906C4F4CE0101960E9460
:10095000980A282F8A3091F3FF2051F0682FC801A0
:100960006D962FAF6D970E9488186D962FAD6D977D
:100970002C3221F7FF24F394E1CFCE0101960E949F
:10098000CC0BC801C45ADF4F0FB6F894DEBF0FBEC0
:10099000CDBFDF91CF911F910F91FF90EF90089500
:1009A000CF93DF93CDB7DEB72C970FB6F894DEBFA9
:1009B0000FBECDBF26E040E950ED63E070E08091CE
:1009C0006B0290916C020E94C01182E692E00E943C
:1009D0007A0784E892E00E94280A60ED77E080E0E0
:1009E00090E00E94750E2DE33AE845EC52E466E192
:1009F00070E086E092E00E94EC0D88EF91E00E94AA
:100A00006A0C64E371E0CE0107960E940F18BE01E4
:100A1000695F7F4FCE0101960E945504BE016F5F52
:100A20007F4F8EEE91E00E942518CE0101960E9424
:100A3000A117CE0107960E94A1176CE371E0CE01C9
:100A400007960E940F18BE01695F7F4FCE01019685
:100A50000E945504BE016F5F7F4F88EE91E00E94B7
:100A60002518CE0101960E94A117CE0107960E947B
:100A7000A11763E471E0CE0107960E940F18BE0132
:100A8000695F7F4FCE0101960E945504CE01019609
:100A90000E945F197093E7016093E601CE01019611
:100AA0000E94A117CE0107960E94A1172C960FB69F
:100AB000F894DEBF0FBECDBFDF91CF91089526E041
:100AC00046E165E188EF91E00E94630C67E271E026
:100AD0008EEE91E00E940F1867E271E088EE91E0DF
:100AE0000E940F1869E471E080EE91E00C940F18F9
:100AF0000C942C02FC01238134812627022E22959E
:100B0000207F2025032E322F22952F700226269536
:100B100032272327220F220F220F2025FC013483A6
:100B200023830895CF93DF93EC018D819E81DC01B7
:100B3000ED91FC916C810190F081E02D09958D8102
:100B40009E81DC01ED91FC910190F081E02D6B81A3
:100B5000DF91CF9109948F929F92AF92BF92CF92E3
:100B6000DF92EF92FF92CF93DF93EC016B010E9433
:100B7000460E4B015C01E12CF12C8D819E81DC0144
:100B8000ED91FC910680F781E02D099597FF0DC04E
:100B90000E94460E681979098A099B096C157D0522
:100BA0008E059F0550F38FEF9FEFDF91CF91FF9060
:100BB000EF90DF90CF90BF90AF909F908F9008956F
:100BC000CF93DF93EC018D819E81DC01ED91FC914F
:100BD0000480F581E02D09951816190654F48D81CD
:100BE0009E81DC01ED91FC910680F781E02D099555
:100BF000EACFDF91CF9108952F923F924F925F926B
:100C00006F927F928F929F92AF92BF92CF92DF921C
:100C1000EF92FF920F931F93CF93DF93CDB7DEB781
:100C20002D970FB6F894DEBF0FBECDBF3C011B0160
:100C30003C832B83BF82AE825801AC0CBD1CA40E3A
:100C4000B51EBD824B2C512CCA01860F971F998768
:100C50008887D901A00FB11FBB87AA87F601EE0DC7
:100C6000FF1DFD87EC87D30118968C91581608F06C
:100C700026C1EFEFFFEFD3011496FC93EE93139789
:100C800015968D919C911697DC01ED91FC91019048
:100C9000F081E02D6FEF09956FEFC3010E947A0597
:100CA000F30185819681DC01ED91FC910190F08149
:100CB000E02DD3016C910995F3016081C3010E947D
:100CC0007A05D30115968D919C911697DC01ED91D3
:100CD000FC910190F081E02D6D810995642DC30197
:100CE0000E947A05F30185819681DC01ED91FC91EA
:100CF0000190F081E02D6A2D09956A2DC3010E94B3
:100D00007A05610188859985C816D906A1F0F30195
:100D1000858196818601DC01ED91FC910190F08145
:100D2000E02DD6016D916D010995F8016081C30137
:100D30000E947A05E7CFCB80DC808A859B85C81628
:100D4000D906B1F0D30115968D919C911697860125
:100D5000DC01ED91FC910190F081E02DD6016D91C7
:100D60006D010995F8016081C3010E947A05E5CF04
:100D700087018C859D8508171907B1F0D301159659
:100D80008D919C9116976801DC01ED91FC91019089
:100D9000F081E02DD8016D918D010995F6016081FA
:100DA000C3010E947A05E5CFC3010E94920564E663
:100DB00070E0C3010E94AB058F3F910509F074C03C
:100DC000EFEFFFEFD3011496FC93EE9313976FEFC1
:100DD000C3010E947A0565E070E0C3010E94AB0583
:100DE000D3016C91262F30E08217930709F05CC085
:100DF000C3010E947A056AE070E0C3010E94AB055E
:100E00008C0197FD51C0682FC3010E947A056AE0EA
:100E100070E0C3010E94AB056C0197FD45C0682FCF
:100E2000C3010E947A050A83198209811A810C0D77
:100E30001D1DC12CD12C65E070E0C301C016D10688
:100E4000A1F0C814D90489F00E94AB0597FD09C030
:100E5000EE81FF81EC0DFD1D8083682FC3010E9490
:100E60007A05BFEFCB1ADB0AE6CF0E94AB056C0117
:100E700097FD1AC065E070E0C3010E94AB0597FDC5
:100E800013C0DC2CCC24C80ED91EF30183819481BD
:100E90008C159D0549F480818F5F8083C801801681
:100EA000910678F4C4010DC0539464E670E080E0CC
:100EB00090E00E94750EC3010E94E005D4CE8FEF32
:100EC0009FEF2D960FB6F894DEBF0FBECDBFDF911A
:100ED000CF911F910F91FF90EF90DF90CF90BF9037
:100EE000AF909F908F907F906F905F904F903F90CA
:100EF0002F9008953F924F925F926F927F928F92C0
:100F00009F92AF92BF92CF92DF92EF92FF920F9398
:100F10001F93CF93DF93CDB7DEB72E970FB6F8941C
:100F2000DEBF0FBECDBF3C01DC0117968C91179739
:100F30008111CFC081E017968C93C3010E94E00518
:100F400068EE73E080E090E00E94750EF301858109
:100F50009681DC01ED91FC910480F581E02D0995ED
:100F60001816190654F345E0542E4424439452E3D2
:100F7000352EE1E1F1E0DE011696852D01900D920E
:100F80008A95E1F7F3014086812C912CA12CB12C9C
:100F9000C12CD12CE12CF12C00E010E020E030E05D
:100FA00045E050E0BE016A5F7F4FC3010E94FC052F
:100FB00063E0D30115968D919C9116970E949D1325
:100FC0006AEF70E080E090E00E94750E68ED70E0DE
:100FD000F301858196810E9476136AEF70E080E0CC
:100FE00090E00E94750E66ED70E0D30115968D912C
:100FF0009C9116970E94761364EF71E080E090E078
:101000000E94750E6AEC70E0F301858196810E9462
:10101000761364EF71E080E090E00E94750EC301EA
:101020000E94E005E6E1F1E0DE011196852D0190D8
:101030000D928A95E1F7D30118963C9234E0832E05
:10104000912CFE013B965F0120E030E045E050E04E
:10105000BE016F5F7F4FC3010E94FC058F3FFFEF12
:101060009F0739F468EE73E080E090E00E94750E0F
:1010700080CF2B852111FFCF049711F52C8530E00F
:101080002053310944E6429FC001439F900D112433
:101090002D8530E0205331096AE0629FA001639FF3
:1010A000500D1124840F951F2E8530E020533109F7
:1010B000820F931FD30112969C938E93119705C0B4
:1010C00084E690E0F3019283818382E3D301189652
:1010D0008C932E960FB6F894DEBF0FBECDBFDF9176
:1010E000CF911F910F91FF90EF90DF90CF90BF9025
:1010F000AF909F908F907F906F905F904F903F90B8
:101100000895109262028DEE92E0909368028093AF
:1011100067021092690210926A0290936C028093A7
:101120006B0208958F929F92AF92BF92CF92DF92FF
:10113000EF92FF920F931F9348015901C12CD12CBC
:10114000E12CF12C00E010E020E030E00E94FC05F2
:101150001F910F91FF90EF90DF90CF90BF90AF90D5
:101160009F908F9008950F931F9300E010E020E070
:1011700030E00E9492081F910F910895CF93DF9362
:1011800000D0CDB7DEB7DC0152968C915297882300
:1011900089F080E589836A8342E050E0BE016F5F99
:1011A0007F4F1C968D919C911D970E94B30881E002
:1011B00090E01FC05596ED91FC91569753968C91F7
:1011C000539791E0980F53969C935397E80FF11D16
:1011D000608353969C91539754968C91549798138F
:1011E00008C0ED91FC9111970284F385E02DCD01AB
:1011F00009950F900F90DF91CF910895AF92BF9214
:10120000CF92DF92EF92FF920F931F93CF93DF93D2
:1012100000D0CDB7DEB75C017A01DC0152968C912B
:10122000811104C08B01E60EF71E41C06A01BFEFB9
:10123000CB1ADB0AC60169837A830E9432138C01C0
:10124000FC0180E58193A70169817A81CF010E9429
:10125000EC1EA601B801F501848595850E94B308AE
:101260000115110519F0C8010E943613C70122C0EB
:10127000D5015596ED91FC91569753968C915397C5
:1012800091E0980F53969C93D8019D918D01E80FA2
:10129000F11D9083F50193898489981308C001900A
:1012A000F081E02D0284F385E02DC50109950E152E
:1012B0001F05F1F60F900F90DF91CF911F910F91C5
:1012C000FF90EF90DF90CF90BF90AF900895CF93B5
:1012D000DF93EC018A8981110AC04B8950E06D8946
:1012E0007E898C859D850E94B30881E08B8BDF9180
:1012F000CF910895FC011382128248EE53E060E022
:1013000070E0448355836683778387E791E0918318
:10131000808382E692E09587848716861786118AF5
:10132000108A81E0828B0895CF93DF93EC018A8944
:10133000811108C08D899E89009711F00E94361393
:1013400081E08A8BDF91CF910895EF92FF920F9306
:101350001F93CF93DF9300D0CDB7DEB77C01FC01A4
:101360008685811114C0178680E7898380E28A838D
:101370002089318900E210E042E050E0BE016F5F59
:101380007F4F848595850E949208F70186870F908C
:101390000F90DF91CF911F910F91FF90EF900895E3
:1013A000CF93DF93EC010E94A5098E8590E0DF9139
:1013B000CF910895CF93DF93EC010E94A5098E850C
:1013C000882369F081508E87E889F9898F8591E0BB
:1013D000980F9F87E80FF11D808190E002C08FEF8A
:1013E0009FEFDF91CF910895CF93DF93EC010E949F
:1013F000A5098E85882341F08F85E889F989E80F52
:10140000F11D808190E002C08FEF9FEFDF91CF91BF
:101410000895CF93DF93EC010E94940988899989FC
:10142000009721F00E943613198A188ADF91CF9114
:10143000089527E731E0FC01318320830C94090AE9
:101440008DE692E00C947A098DE692E00C94190AEC
:1014500081E0089582E692E0909385028093840271
:10146000089582E692E09093870280938602089521
:1014700008950F931F93CF93DF9300D01F92CDB7A2
:10148000DEB729E42983FC0126852A836B8300E0EB
:1014900010E020E030E043E050E0BE016F5F7F4F9E
:1014A000848595850E94920881E090E00F900F90CE
:1014B0000F90DF91CF911F910F910895EF92FF92BE
:1014C0000F931F93CF93DF9300D01F92CDB7DEB75A
:1014D0007C01FC018389811117C0148A8FE4898300
:1014E00086858A8380E48B8397012B5E3F4F00E4DF
:1014F00010E043E050E0BE016F5F7F4F848595852B
:101500000E949208F701838B0F900F900F90DF914C
:10151000CF911F910F91FF90EF900895CF93DF939C
:10152000EC010E945E0A8B8990E0DF91CF910895D3
:10153000CF93DF93EC010E945E0A8B89882359F0D8
:1015400081508B8B8C8991E0980F9C8BC80FD11D9B
:101550008D8990E002C08FEF9FEFDF91CF910895CA
:10156000CF93DF93EC010E945E0A8B89882331F0D0
:101570008C89C80FD11D8D8990E002C08FEF9FEF3D
:10158000DF91CF9108950F931F93CF93DF93EC01D9
:101590008B0163E871E0888999890E947818B80105
:1015A00088899989DF91CF911F910F910C947118BF
:1015B0006F927F928F929F92AF92BF92CF92DF9263
:1015C000EF92FF920F931F93CF93DF9300D01F9260
:1015D000CDB7DEB73C0182E58B83D3015096ED9108
:1015E000FC915197048115812081318182E0882E00
:1015F000912CFE0131965F01C12CD12CE12CF12CF4
:1016000041E050E0BE016D5F7F4F1C968D919C9133
:101610001D970E94FC058A8190E0D3011F969C9340
:101620008E931E9750960D911C915197011511059F
:1016300031F0C8010E94A117C8010E943413F301C0
:10164000118A108A8981811102C081E0828B0F90FA
:101650000F900F90DF91CF911F910F91FF90EF901E
:10166000DF90CF90BF90AF909F908F907F906F90C2
:1016700008950F931F93CF93DF9300D01F92CDB7A0
:10168000DEB722E72983FC0126852A8301E010E0EA
:101690009E012D5F3F4F42E050E0BE016F5F7F4FE4
:1016A000848595850E94920881E09B81913009F0A4
:1016B00080E00F900F900F90DF91CF911F910F91CD
:1016C00008950F931F93CF93DF9300D000D0CDB731
:1016D000DEB727E52B83FC0126852C8302E010E092
:1016E0009E012F5F3F4F42E050E0BE016D5F7F4F94
:1016F000848595850E949208898190E0982F88279B
:101700002A81820F911D0F900F900F900F90DF9103
:10171000CF911F910F910895CF93DF93EC010E9419
:10172000D80ACE010E94390B882339F064E670E0B4
:1017300080E090E00E94750EF4CFCE01DF91CF9152
:101740000C94610BEF92FF920F931F93CF93DF9353
:1017500000D0CDB7DEB77C01FC018289882389F0F7
:1017600087E7898386858A8300E010E020E030E007
:1017700042E050E0BE016F5F7F4F848595850E94F7
:101780009208F701128A0F900F90DF91CF911F916D
:101790000F91FF90EF90089525E931E0FC0131832E
:1017A00020830C94A20BEF92FF920F931F93CF9381
:1017B000DF9300D0CDB7DEB77C0169837A830E94C6
:1017C000A20B86E090E00E9430138C0169817A813F
:1017D0000E943C18F701118B008B0F900F90DF9146
:1017E000CF911F910F91FF90EF900895EF92FF928C
:1017F0000F931F93CF93DF9300D000D000D0CDB7CD
:10180000DEB78C017B0165E871E0CE0101960E9494
:101810000F18BE016F5F7F4FC8010E94D30BCE012E
:1018200001960E94A1176EE871E0CE0101960E9418
:101830000F18BE016F5F7F4FC8010E94C30ACE011F
:1018400001960E94A117B701C8010E94C30AC801EE
:101850000E94D80A26960FB6F894DEBF0FBECDBF01
:10186000DF91CF911F910F91FF90EF900895CF934B
:10187000DF93EC010E94F60BCE010E94390B882306
:1018800039F064E670E080E090E00E94750EF4CFDD
:10189000CE01DF91CF910C94610B0F9300E020E01B
:1018A00040E060E088E892E00E9401130F91089503
:1018B0000F9300E020E040E060E08EE892E00E94BC
:1018C00001130F910895FC0166834783208781E00F
:1018D00085870895CF93DF93EC0160E08E810E94AD
:1018E0006B0F61E08E810E94A40F19861A861B86F9
:1018F0001C86DF91CF910895DF92EF92FF920F93B4
:101900001F93CF93DF93EC0161E08E810E94A40FBF
:101910006AEF70E080E090E00E94750E0E94460E33
:1019200009851A852B853C85601771078207930707
:1019300020F419861A861B861C862D85211111C05C
:1019400009851A852B853C85DC01CB01801B910B19
:10195000A20BB30B803D9740A105B10510F481E0C7
:101960006FC01D860E94460E69877A878B879C8789
:101970001C821B821A821982188261E08E810E9469
:101980006B0F60E08E810E94A40F64E170E080E044
:1019900090E00E94750E61E08E810E94A40F88E2A3
:1019A00090E00E949D0E60E08E810E946B0FF12CF2
:1019B000D12C81E0E12C082F10E08E810E94DA0FFB
:1019C0008017910741F4E39481E090E00E949D0E1E
:1019D0008FEFE812F2CF8E810E94DA0F9FEFE916A7
:1019E000C9F023E02F1590F4F0FC10C09D2D9695C2
:1019F00096959695FE01E90FF11D9081990F9083C0
:101A000028852E1510F491609083D394F39495E576
:101A1000F912D0CF27E22D1590F42C8130E04881C7
:101A2000898190E0840F911D4A81840F911D4B8123
:101A3000840F911D99272817390709F490CF80E06A
:101A4000DF91CF911F910F91FF90EF90DF9008955C
:101A5000CF92DF92EF92FF920F931F93CF93DF937A
:101A6000EC01162F0E947C0C882309F450C08F8152
:101A70008B3031F008F44BC08551823078F047C08C
:101A80006A8170E080E090E00E947B1B112309F4E2
:101A900049C020E030E040E151E42AC00A81602FD3
:101AA0006F7770E080E090E00E947D1B20E030E0E6
:101AB00040E853E40E94091C6B017C016B8170E0DB
:101AC00080E090E00E947D1B9B01AC01C701B60144
:101AD0000E94AF1A20E030E040E251E40E94131B64
:101AE00007FD9058112309F120E030E040E151E476
:101AF0000E94091C20E030E040EA50E40E94131BE1
:101B000020E030E040E052E40E94AF1A0EC061EAEB
:101B100071E08DE992E00E949B1320E030E040E00C
:101B200050E005C09B01AC0102C09B01AC01B901B2
:101B3000CA01DF91CF911F910F91FF90EF90DF903D
:101B4000CF900895CF92DF92EF92FF92CF93DF93E1
:101B5000EC010E947C0C882379F18F818B3029F174
:101B600058F18551823040F5688170E080E090E066
:101B70000E947B1B20E030E040E853E40E94091CF7
:101B80006B017C01698170E080E090E00E947D1B28
:101B90009B01AC01C701B6010E94AF1A20E030E002
:101BA00040E251E40E94131B10C0688170E080E0A5
:101BB00090E00E947B1B09C061EA71E08DE992E030
:101BC0000E949B1360E070E0CB01DF91CF91FF900A
:101BD000EF90DF90CF900895FC01778B668B248F78
:101BE000358F468F578F40E050E060E074E440AF9F
:101BF00051AF62AF73AF08951F920F920FB60F925D
:101C000011242F933F938F939F93AF93BF93809112
:101C1000950290919602A0919702B091980230910E
:101C2000940223E0230F2D3720F40196A11DB11D4E
:101C300005C026E8230F0296A11DB11D2093940232
:101C40008093950290939602A0939702B093980286
:101C50008091990290919A02A0919B02B0919C026E
:101C60000196A11DB11D8093990290939A02A093B1
:101C70009B02B0939C02BF91AF919F918F913F9136
:101C80002F910F900FBE0F901F9018952FB7F894BB
:101C900060919502709196028091970290919802BE
:101CA0002FBF08953FB7F8948091990290919A02BE
:101CB000A0919B02B0919C0226B5A89B05C02F3F26
:101CC00019F00196A11DB11D3FBF6627782F892FFE
:101CD0009A2F620F711D811D911D42E0660F771FC3
:101CE000881F991F4A95D1F70895CF92DF92EF92FE
:101CF000FF92CF93DF936B017C010E94520EEB01A8
:101D0000C114D104E104F10489F00E946A190E940F
:101D1000520E6C1B7D0B683E734090F381E0C81A35
:101D2000D108E108F108C851DC4FEACFDF91CF912B
:101D3000FF90EF90DF90CF900895019739F0880FD2
:101D4000991F880F991F02970197F1F708957894CA
:101D500084B5826084BD84B5816084BD85B58260B0
:101D600085BD85B5816085BDEEE6F0E0808181604E
:101D70008083E1E8F0E0108280818260808380814E
:101D800081608083E0E8F0E0808181608083E1E928
:101D9000F0E0808182608083808181608083E0E9DF
:101DA000F0E0808181608083E1ECF0E080818460FC
:101DB0008083808182608083808181608083E3EC86
:101DC000F0E0808181608083E0ECF0E080818260DF
:101DD0008083E2ECF0E0808181608083EAE7F0E0DC
:101DE0008081846080838081826080838081816043
:101DF00080838081806880830895823108F08251D9
:101E0000E82FF0E0E652FF4FE49180917B00E3FB86
:101E1000222720F930E095E0220F331F9A95E1F751
:101E20008F7D822B80937B00E7708091060120E4F8
:101E3000829FC0011124E82BE0937C0080917A00FE
:101E4000806480937A0080917A0086FDFCCF809137
:101E500078002091790090E0922B089590E0FC01A9
:101E60003197EF30F105B0F5EA5AFF4F0C94AD1CF5
:101E7000809180008F7703C0809180008F7D809358
:101E80008000089580918000877FF9CF84B58F7797
:101E900002C084B58F7D84BD0895809190008F77B6
:101EA00007C0809190008F7D03C080919000877F54
:101EB0008093900008958091C0008F7703C0809137
:101EC000C0008F7D8093C00008958091C200877FFD
:101ED0008093C2000895CF93DF9390E0FC01EC5F04
:101EE000FE4F2491FC01EE5DFE4F8491882349F161
:101EF00090E0880F991FFC01E45AFE4FA591B49120
:101F0000825B9E4FFC01C591D4919FB7611108C0BF
:101F1000F8948C91209582238C93888182230AC027
:101F2000623051F4F8948C91322F309583238C9346
:101F30008881822B888304C0F8948C91822B8C93A7
:101F40009FBFDF91CF9108950F931F93CF93DF939E
:101F50001F92CDB7DEB7282F30E0F901EA51FF4FCD
:101F60008491F901EC5FFE4F1491F901EE5DFE4F93
:101F700004910023C9F0882321F069830E942E0F69
:101F80006981E02FF0E0EE0FFF1FE25BFE4FA591AD
:101F9000B4919FB7F8948C91611103C0109581237F
:101FA00001C0812B8C939FBF0F90DF91CF911F9128
:101FB0000F910895CF93DF93282F30E0F901EA5174
:101FC000FF4F8491F901EC5FFE4FD491F901EE5D72
:101FD000FE4FC491CC2391F081110E942E0FEC2F63
:101FE000F0E0EE0FFF1FE05CFE4FA591B4912C9145
:101FF0002D2381E090E021F480E002C080E090E0B9
:10200000DF91CF910895CF93DF931F92CDB7DEB7C5
:102010006983DC01ED91FC910280F381E02D41E0C8
:1020200050E0BE016F5F7F4F09950F90DF91CF9118
:102030000895CF93DF93EC018C859D8597FF05C0B4
:1020400082E00E94D0149D878C878C859D85DF91CE
:10205000CF91089583E00C942317FC018485958526
:1020600097FD06C082E00E94781490E001960895E2
:1020700082E00E94781490E00895FC0184859585A3
:1020800097FD05C02FEF3FEF35872487089582E045
:102090000C94D014CF93DF93EC0180910E01882330
:1020A00031F083E00E9401151816190634F081E022
:1020B00090E09B838A8380E090E0DF91CF91089548
:1020C000FC0120812E5F208342E450E06AE671E04B
:1020D00080E80C949C15FC0181819081913A59F41F
:1020E000813209F03CC047E050E067E071E080E0F9
:1020F0000E949C1543C0913291F5803239F467E01B
:1021000070E087E091E00E94CD1506C0823209F0B0
:1021100035C0828180930E01809107019091080162
:10212000A0910901B0910A01803B9440A105B1053D
:10213000C1F480910E0180FD14C087E797E790936A
:102140000108809300082BE088E190E00FB6F89436
:10215000A895809360000FBE209360000FC080E0C0
:10216000089588E10FB6F8948093600010926000A3
:102170000FBEA895109201081092000881E0089502
:102180001092A00210929F0288EE93E0A0E0B0E0CF
:102190008093A1029093A202A093A302B093A40201
:1021A0008FEA91E090939E0280939D028FEF9FEFC4
:1021B0009093AA028093A9020895FC01818D228D3B
:1021C00090E0805C9F4F821B91098F73992708953F
:1021D000FC01918D828D981731F0828DE80FF11DF1
:1021E000858D90E008958FEF9FEF0895FC01918D0C
:1021F000828D981761F0828DDF01A80FB11D5D9669
:102200008C91928D9F5F9F73928F90E008958FEFD6
:102210009FEF08958AE792E1892B49F080E090E0F2
:10222000892B29F00E947A1281110C9400000895E4
:10223000FC01848DDF01A80FB11DA35ABF4F2C9163
:10224000848D90E001968F739927848FA689B78932
:102250002C93A089B1898C9180648C93938D848D0B
:10226000981306C00288F389E02D80818F7D8083DA
:102270000895CF93DF93EC01888D8823C9F0EA8914
:10228000FB89808185FD05C0A889B9898C9186FD6F
:102290000FC00FB607FCF5CF808185FFF2CFA8896C
:1022A000B9898C9185FFEDCFCE010E941811E7CF3F
:1022B000DF91CF910895CF92DF92FF920F931F93FA
:1022C000CF93DF931F92CDB7DEB76C01DC015B9635
:1022D0009C915B975C968C915C97981307C0509685
:1022E000ED91FC915197808185FD32C0F601038DFF
:1022F00010E00F5F1F4F0F731127F02EF601848D32
:10230000F81211C00FB607FCF9CFD6015096ED9127
:10231000FC915197808185FFF1CFC60169830E94AE
:1023200018116981EBCF838DE80FF11DE35AFF4F40
:102330006083D6015B960C935B975296ED91FC916E
:10234000539780818062808381E058968C930DC082
:10235000D6015696ED91FC91579760835096ED917A
:10236000FC91519780818064808381E090E00F90A0
:10237000DF91CF911F910F91FF90DF90CF90089543
:10238000BF92CF92DF92EF92FF92CF93DF93EC0157
:102390006A017B01B22EE889F98982E080834115C8
:1023A00081EE580761057105A1F060E079E08DE3E9
:1023B00090E0A70196010E946C1C2150310941094F
:1023C00051095695479537952795211580E138078E
:1023D00098F0E889F989108260E874E88EE190E06D
:1023E000A70196010E946C1C215031094109510935
:1023F0005695479537952795EC85FD853083EE8575
:10240000FF852083188EEC89FD89B082EA89FB89DB
:10241000808180618083EA89FB89808188608083F4
:10242000EA89FB89808180688083EA89FB898081D1
:102430008F7D8083DF91CF91FF90EF90DF90CF90E1
:10244000BF9008951F920F920FB60F9211242F93F1
:102450008F939F93EF93FF93E091FD02F091FE0223
:102460008081E0910303F091040382FD12C090810A
:10247000809106038F5F8F7320910703821751F0BD
:10248000E0910603F0E0E351FD4F958F8093060342
:1024900001C08081FF91EF919F918F912F910F90BB
:1024A0000FBE0F901F9018951F920F920FB60F92AC
:1024B00011242F933F934F935F936F937F938F9349
:1024C0009F93AF93BF93EF93FF938DEE92E00E94A3
:1024D0001811FF91EF91BF91AF919F918F917F91D3
:1024E0006F915F914F913F912F910F900FBE0F9081
:1024F0001F9018958DEE92E00E94DD1021E0892B4F
:1025000009F420E0822F08951092F0021092EF0259
:1025100088EE93E0A0E0B0E08093F1029093F202A5
:10252000A093F302B093F4028FEB91E09093EE024C
:102530008093ED028DEC90E09093FA028093F90283
:102540008CEC90E09093FC028093FB0288EC90E08E
:102550009093FE028093FD0289EC90E0909300033B
:102560008093FF028AEC90E0909302038093010332
:102570008EEC90E090930403809303031092060383
:102580001092070310920803109209030895AF9266
:10259000BF92CF92DF92EF92FF920F931F93CF9350
:1025A000DF936C017B01C0E0D0E000E010E0F601B9
:1025B000EC0FFD1F4AE050E06281C7010E940A143F
:1025C0005C016EE2C7010E949D138A0D9B1D080FDE
:1025D000191F2196C330D10551F74AE050E0F601AA
:1025E0006581C7010E940A14800F911FDF91CF916E
:1025F0001F910F91FF90EF90DF90CF90BF90AF9021
:1026000008950F93FC018FEC91E0918380836283A6
:102610004383248305830F9108958FEC91E0909379
:102620008B0380938A0310928C0310928D03109277
:102630008E0310928F03089508950E94A70E0E94A2
:102640001C1380E993E00E9483170E94D004CAE023
:10265000D1E10E945C032097E1F30E940A11F9CFB7
:102660000C94D41C0C94D41C0C946C1D0C946C1DF8
:10267000CF92DF92EF92FF920F931F93CF93DF934E
:102680006C017A01EB01E60EF71E00E010E0CE15BA
:10269000DF0561F06991D601ED91FC910190F08127
:1026A000E02DC6010995080F191FF1CFC801DF9170
:1026B000CF911F910F91FF90EF90DF90CF900895F1
:1026C0006115710581F0DB010D900020E9F7AD0186
:1026D00041505109461B570BDC01ED91FC910280E2
:1026E000F381E02D099480E090E00895EF92FF924D
:1026F0000F931F93CF93DF938C01FB01C0E0D0E0D9
:1027000064917F018FEFE81AF80A662361F0D8011F
:10271000ED91FC910190F081E02DC8010995C80F61
:10272000D91FF701EDCFCE01DF91CF911F910F910E
:10273000FF90EF9008950C946013DC01ED91FC91F3
:102740000190F081E02D09948F929F92AF92BF92F9
:10275000CF92DF92EF92FF920F931F93CF93DF936D
:10276000CDB7DEB7A1970FB6F894DEBF0FBECDBFD1
:102770007C01C42EE52FCB01D22E19A221E02D150C
:1027800010F02AE0D22E8E010F5D1F4F8D2C912C60
:10279000A12CB12C6C2D7E2FA50194010E946C1CE4
:1027A0008C2DD29E80191124015011098A3014F405
:1027B000805D01C0895CF8018083211531054105E8
:1027C000510521F0C22EE32FCA01E4CFB801C701A1
:1027D0000E946013A1960FB6F894DEBF0FBECDBF66
:1027E000DF91CF911F910F91FF90EF90DF90CF90ED
:1027F000BF90AF909F908F9008952115310541F4BF
:10280000DC01ED91FC910190F081E02D642F0994A1
:102810000C94A4139A01462F50E060E070E00C94F1
:10282000FD134091940350919503209192033091B0
:10283000930342175307B4F49091E8009570E1F3C5
:102840009091E80092FD19C08093F100809194036B
:102850009091950301968F739927892B19F48EEF28
:102860008093E80080919403909195030196909352
:1028700095038093940381E0089580E00895FF928A
:102880000F931F93CF93DF938C0188E10E94111463
:1028900083E00E941114C0E0D0E0F801EC0FFD1FAE
:1028A00084910E941114F82E80E00E9411148F214F
:1028B00021F02196CB30D10581F7DF91CF911F9187
:1028C0000F91FF900895615030F02091F100FC01CC
:1028D00020830196F8CF289884E680939703089583
:1028E0002FB7FC012083F89467706093E900089586
:1028F000CF93DF931F92CDB7DEB7682FCE0101963D
:102900000E9470148091F20099819FBF0F90DF9117
:10291000CF910895FF920F931F93CF93DF9300D031
:10292000CDB7DEB7F62E8A0190919603992311F068
:1029300057FF03C08FEF9FEF2BC0682FCE0101968A
:102940007A830E9470148091F20090E0A8017A814D
:10295000801791070CF4AC01EF2DF72FF40E84E6ED
:10296000FE1639F02898809397039091F100919387
:10297000F7CF4115510521F08091F200882321F015
:1029800089818FBFCA0104C08BE68093E800F8CF2D
:102990000F900F90DF91CF911F910F91FF900895AD
:1029A000CF93DF931F92CDB7DEB741E050E0BE0179
:1029B0006F5F7F4F0E948A14019719F4898190E01C
:1029C00002C08FEF9FEF0F90DF91CF910895CF93CB
:1029D000DF931F92CDB7DEB7682FCE0101960E941C
:1029E00070149091E800892F807295FF04C0909137
:1029F000F20080E4891B99819FBF0F90DF91CF91F6
:102A000008956F927F928F929F92AF92BF92CF92D2
:102A1000DF92EF92FF920F931F93CF93DF931F925A
:102A2000CDB7DEB7782E7B01C42EB52E80919603EC
:102A3000882369F0042F152F8AEFD82E872D8072F6
:102A4000982E9AE3A92E872D8074882E11C08FEFBF
:102A50009FEF57C0872D0E94E714682E81110CC08C
:102A6000DA94A9F361E070E080E090E00E94750ED6
:102A70000115110579F73BC0282F30E00217130725
:102A80000CF4602E672DCE0101960E947014809187
:102A9000E80085FF29C0262D30E0021B130B99208A
:102AA00039F06A948FEF6816B1F01092F100F9CF07
:102AB000F701862D77FE07C0815058F094919093CE
:102AC000F1003196F9CF815020F091919093F1006F
:102AD000FACFE20EF31E8091E80085FF0FC00115CA
:102AE000110511F481100AC089818FBFC1CF5D9893
:102AF00084E6809398038C2D9B2D03C0A092E80060
:102B0000F3CF0F90DF91CF911F910F91FF90EF9036
:102B1000DF90CF90BF90AF909F908F907F906F90FD
:102B200008951092E90010929503109294039093E7
:102B30009303809392030895CF92DF92FF920F93B5
:102B40001F93CF93DF9300D0CDB7DEB7F82E8A0165
:102B50006B0101151105B1F0F601F7FE02C0849179
:102B600001C0808149835A830E94111401501109C8
:102B7000FFEFCF1ADF0A49815A818111EACF8FEF27
:102B80009FEF01C0CA010F900F90DF91CF911F916D
:102B90000F91FF90DF90CF9008951F93CF93DF9315
:102BA0001F92CDB7DEB7162F2091E80022FFFCCF91
:102BB000612F79830E9463148BEF8093E800812F4B
:102BC0007981972F0F90DF91CF911F910895CF9327
:102BD000DF931F92CDB7DEB71982CE0101960E9416
:102BE0006010CE0101960E948919898190E00F90B2
:102BF000DF91CF9108951F920F920FB60F9211247B
:102C0000EF92FF920F931F932F933F934F935F93F6
:102C10006F937F938F939F93AF93BF93EF93FF93A4
:102C2000CF93DF93CDB7DEB76297DEBFCDBF1092F3
:102C3000E9008091E80083FFE9C068E0CE010A96D0
:102C40000E94631482EF8093E8009A8597FF05C085
:102C50008091E80080FFFCCF03C08EEF8093E800F6
:102C6000892F807609F0B7C08B85811105C010923D
:102C7000F1001092F100C3C0282F2D7F213009F4FC
:102C8000BEC0853049F48091E80080FFFCCF8C8580
:102C900080688093E300B3C0863009F074C02D854E
:102CA000E888F988223071F580E090E02A8B0E9454
:102CB00091150E94E71599E08E010F5F1F4FF801F3
:102CC000392F11923A95E9F799832A892A8391E05D
:102CD0009E8390E898879AEF99872091940330918A
:102CE0009503275F3F4F3C832B838D83C7010E9451
:102CF000911549E050E0B80180E00E949C150E94C7
:102D0000E7157DC0C7012A8B0E9491152A892232BE
:102D100041F482E290E00E949419892B09F06FC07F
:102D200072C0213069F488899989089711F4209339
:102D3000910380919103811116C063EC71E018C07A
:102D4000233009F060C08C85882381F0823019F42B
:102D500081EE91E005C0813009F055C085ED91E02C
:102D60000E943F144AC061EB71E002C06DEE71E059
:102D70006115710509F447C0FB01449150E080E8FA
:102D80000E949C153CC0873009F43DC0883021F476
:102D900081E08093F10033C0893089F5937099F513
:102DA000EDEAF1E081E021E096E38093E9002093F1
:102DB000EB0034913093EC009093ED008F5F3196EF
:102DC000853099F78EE78093EA001092EA008C85AF
:102DD0008093960314C0888999890E9491158E85E5
:102DE000811105C0CE010A960E946B1006C0823088
:102DF00051F4CE010A960E94BC19882321F08EEF6F
:102E00008093E80003C081E28093EB0062960FB6E6
:102E1000F894DEBF0FBECDBFDF91CF91FF91EF9150
:102E2000BF91AF919F918F917F916F915F914F91E2
:102E30003F912F911F910F91FF90EF900F900FBE38
:102E40000F901F9018958093E9008091F2008823DD
:102E500019F08AE38093E80008951F920F920FB64D
:102E60000F9211242F933F934F935F936F937F9310
:102E70008F939F93AF93BF93EF93FF938091E10064
:102E80001092E10083FF0FC01092E90091E090934F
:102E9000EB001092EC0092E39093ED0010929603F9
:102EA00098E09093F00082FF1DC083E00E942317FA
:102EB00080919803882339F0809198038150809302
:102EC0009803882369F080919703882359F08091B3
:102ED0009703815080939703811104C0289A02C000
:102EE0005D9AF1CFFF91EF91BF91AF919F918F913B
:102EF0007F916F915F914F913F912F910F900FBEF6
:102F00000F901F9018951092960381E08093D70040
:102F100080EA8093D80082E189BD09B400FEFDCF2C
:102F200061E070E080E090E00E94750E80E980939F
:102F3000D8008CE08093E2001092E000559A209A2D
:102F40000895FC01808191810C946C1DCF93DF93D7
:102F5000EC0188819981009711F00E946C1D198203
:102F600018821D821C821B821A82DF91CF910895E4
:102F70000F931F93CF93DF93EC018B016F5F7F4F14
:102F8000888199810E94FB1D009731F09983888385
:102F90001B830A8381E001C080E0DF91CF911F9104
:102FA0000F910895CF93DF93EC0188819981892B4C
:102FB00029F08A819B818617970760F4CE010E94D1
:102FC000B817882341F08C819D81892B19F4E88101
:102FD000F981108281E0DF91CF910895EF92FF9205
:102FE0000F931F93CF93DF93EC017B018A01BA010A
:102FF0000E94D217811104C0CE010E94A61707C0FB
:103000001D830C83B701888199810E94F51ECE0132
:10301000DF91CF911F910F91FF90EF900895FC01E8
:103020001182108213821282158214826115710539
:1030300059F0FB0101900020E9F7AF01415051091F
:10304000461B570B0C94EE170895CF93DF93EC01BA
:10305000FB018617970761F0608171816115710529
:1030600029F0448155810E94EE1702C00E94A617E4
:10307000CE01DF91CF910895FC011182108213825D
:103080001282158214820C942518EF92FF920F93EE
:103090001F93CF93DF93EC017B010C811D816115A0
:1030A000710511F480E016C04115510591F0040F2F
:1030B000151FB8010E94D2178823A1F328813981F6
:1030C0008C819D81B701820F931F0E94F51E1D8385
:1030D0000C8381E0DF91CF911F910F91FF90EF90D2
:1030E0000895FB0144815581608171810C944518DC
:1030F0006115710559F0FB0101900020E9F7AF015E
:1031000041505109461B570B0C94451880E0089517
:10311000CF93DF9300D0CDB7DEB769831A8241E049
:1031200050E0BE016F5F7F4F0E9445180F900F90D7
:10313000DF91CF910895EF92FF920F931F93CF935A
:10314000DF93CDB7DEB728970FB6F894DEBF0FBE7A
:10315000CDBF7C01CB014AE050E08E010F5F1F4FD5
:10316000B8010E94FC1EF80101900020E9F7AF01B0
:1031700041505109401B510BB801C7010E9445182D
:1031800028960FB6F894DEBF0FBECDBFDF91CF916A
:103190001F910F91FF90EF900895EF92FF920F9380
:1031A0001F93CF93DF93CDB7DEB72E970FB6F8946A
:1031B000DEBF0FBECDBF7C01CB01BA012AE030E0FB
:1031C0008E010F5F1F4FA8010E94121FF80101908E
:1031D0000020E9F7AF0141505109401B510BB801E4
:1031E000C7010E9445182E960FB6F894DEBF0FBE99
:1031F000CDBFDF91CF911F910F91FF90EF90089578
:10320000EF92FF920F931F93CF93DF93CDB7DEB76B
:1032100064970FB6F894DEBF0FBECDBF7C01CB0123
:10322000BA018E010F5F1F4F22E044E00E94B31CE1
:10323000FC0101900020E9F7AF0141505109481B02
:10324000590BBC01C7010E94451864960FB6F8944B
:10325000DEBF0FBECDBFDF91CF911F910F91FF90C9
:10326000EF900895CF93DF93EC01FB0144815581EA
:10327000608171810E944518811103C0CE010E94B6
:10328000A617CE01DF91CF910895CF93DF93EC0184
:103290006115710569F0FB0101900020E9F7AF01AC
:1032A00041505109461B570B0E944518811103C01C
:1032B000CE010E94A617CE01DF91CF910895FC01A7
:1032C00080819181009711F00C94C51E60E070E040
:1032D000CB0108950895FF920F931F93CF93DF932F
:1032E000EC01F62EE881F9810480F581E02D099545
:1032F0008C01E881F9810680F781E02D6F2DCE01E8
:103300000995C8019927DF91CF911F910F91FF90E7
:103310000895FC0120812F5F208349E150E061E79F
:1033200072E080E80C949C1545E650E06AE872E093
:1033300080E80C949C15EF92FF920F931F93CF930C
:10334000DF931F92CDB7DEB789838B017A0141E00D
:1033500050E0BE016F5F7F4F84E00E940115A7011E
:10336000B80184E40E9401150F90DF91CF911F9165
:103370000F91FF90EF900895FC0191818081813A37
:1033800031F481E0913091F0933089F411C08132B1
:1033900071F49B3021F482818093100105C09A3032
:1033A00031F4828180930F0181E00895089580E0D7
:1033B000089548E050E082E00C949B19CF93DF938E
:1033C000DC01683818F0E8E7E60F25C0E62FF0E0EA
:1033D00067FF11C0E058F10981E090E001C0880F5B
:1033E000EA95EAF714969C911497982B14969C935F
:1033F0001497E0E010C0EF50FE4FE491EE2309F483
:1034000040C0E7FF08C014968C9114978260149610
:103410008C931497EF7716968C9116978E1741F12F
:1034200017968C9117978E1719F118968C911897FB
:103430008E17F1F019968C9119978E17C9F01A967C
:103440008C911A978E17A1F01B968C911B978E1753
:1034500079F080E090E0ED01C80FD91F2E81211195
:1034600002C0EE8305C0019686309105A1F709C020
:10347000BD016C5F7F4FCD010E94D91981E090E0C2
:1034800008C081E090E013969C938E93129780E0A1
:1034900090E0DF91CF910895683818F0E8E7E60FE3
:1034A00025C0E62FF0E067FF12C0E058F10921E0E7
:1034B00030E001C0220FEA95EAF72095DC0114966E
:1034C0003C911497322314963C93E0E00FC0EF50E8
:1034D000FE4FE491EE2329F1E7FF08C0DC011496CA
:1034E0002C9114972D7F14962C93EF7720E030E0E9
:1034F000EE2351F0DC01A20FB31F16964C911697E4
:103500004E1302C016961C922F5F3F4F2630310596
:1035100079F7BC016C5F7F4F0E94D91981E090E080
:10352000089580E090E00895FC01168217821086CD
:103530001186128613861482BC016C5F7F4F0C9437
:10354000D9191092A50310929C0310929B0385ED4C
:1035500091E090939A038093990308955058BB2764
:10356000AA270ED01CC10DD130F012D120F031F4B9
:103570009F3F11F41EF402C10EF4E095E7FBF8C082
:10358000E92F1ED180F3BA176207730784079507E6
:1035900018F071F49EF536C10EF4E0950B2EBA2F9B
:1035A000A02D0B01B90190010C01CA01A001112449
:1035B000FF27591B99F0593F50F4503E68F11A16F5
:1035C000F040A22F232F342F4427585FF3CF469586
:1035D00037952795A795F0405395C9F77EF41F16A8
:1035E000BA0B620B730B840BBAF09150A1F0FF0F72
:1035F000BB1F661F771F881FC2F70EC0BA0F621F5E
:10360000731F841F48F4879577956795B795F7954D
:103610009E3F08F0B3CF9395880F08F09927EE0FDF
:103620009795879508950CD0BAC0B2D040F0A9D034
:1036300030F021F45F3F19F09BC05111E4C09EC0EF
:10364000BFD098F39923C9F35523B1F3951B550BBC
:10365000BB27AA2762177307840738F09F5F5F4F65
:10366000220F331F441FAA1FA9F333D00E2E3AF0A6
:10367000E0E830D091505040E695001CCAF729D0C0
:10368000FE2F27D0660F771F881FBB1F261737070F
:103690004807AB07B0E809F0BB0B802DBF01FF273F
:1036A00093585F4F2AF09E3F510568F061C0ABC050
:1036B0005F3FECF3983EDCF3869577956795B79579
:1036C000F7959F5FC9F7880F911D9695879597F994
:1036D0000895E1E0660F771F881FBB1F621773070D
:1036E0008407BA0720F0621B730B840BBA0BEE1F22
:1036F00088F7E0950895E89409C097FB3EF490950B
:103700008095709561957F4F8F4F9F4F9923A9F0BA
:10371000F92F96E9BB279395F69587957795679549
:10372000B795F111F8CFFAF4BB0F11F460FF1BC08D
:103730006F5F7F4F8F4F9F4F16C0882311F096E920
:1037400011C0772321F09EE8872F762F05C06623CE
:1037500071F096E8862F70E060E02AF09A95660F87
:10376000771F881FDAF7880F9695879597F9089540
:1037700097F99F6780E870E060E008959FEF80EC24
:10378000089500240A9416161706180609060895C7
:1037900000240A9412161306140605060895092E2D
:1037A0000394000C11F4882352F0BB0F40F4BF2B9C
:1037B00011F460FF04C06F5F7F4F8F4F9F4F0895DC
:1037C00057FD9058440F551F59F05F3F71F04795D2
:1037D000880F97FB991F61F09F3F79F087950895B7
:1037E000121613061406551FF2CF4695F1DF08C0D6
:1037F000161617061806991FF1CF869571056105F3
:1038000008940895E894BB2766277727CB0197F99A
:1038100008950BD0C4CFB5DF28F0BADF18F0952398
:1038200009F0A6CFABCF1124EECFCADFA0F3959F4E
:10383000D1F3950F50E0551F629FF001729FBB2797
:10384000F00DB11D639FAA27F00DB11DAA1F649F43
:103850006627B00DA11D661F829F2227B00DA11DF6
:10386000621F739FB00DA11D621F839FA00D611D7C
:10387000221F749F3327A00D611D231F849F600D9D
:10388000211D822F762F6A2F11249F5750408AF0D6
:10389000E1F088234AF0EE0FFF1FBB1F661F771F62
:1038A000881F91505040A9F79E3F510570F060CF9E
:1038B000AACF5F3FECF3983EDCF38695779567954A
:1038C000B795F795E7959F5FC1F7FE2B880F911D80
:1038D0009695879597F90895A1E21A2EAA1BBB1B0E
:1038E000FD010DC0AA1FBB1FEE1FFF1FA217B307CC
:1038F000E407F50720F0A21BB30BE40BF50B661FE2
:10390000771F881F991F1A9469F7609570958095A5
:1039100090959B01AC01BD01CF010895052E97FB49
:103920001EF400940E94A51C57FD07D00E946C1C39
:1039300007FC03D04EF40C94A51C5095409530958F
:1039400021953F4F4F4F5F4F08959095809570950B
:1039500061957F4F8F4F9F4F0895EE0FFF1F05908A
:10396000F491E02D0994EF920F931F93CF93DF937F
:10397000E80147FF02C034E101C034E0E42FFF2733
:10398000E7FDF095F7FF03C0F195E195F109E32E0E
:10399000022F2E2FAE010E947D1FCE01DF91CF910D
:1039A0001F910F91EF900895CF93DF93823091058F
:1039B00010F482E090E0E091A803F091A90320E0E8
:1039C00030E0A0E0B0E0309739F1408151814817F4
:1039D0005907B8F04817590771F4828193811097FD
:1039E00029F013969C938E9312972CC09093A90361
:1039F0008093A80327C02115310531F042175307E2
:103A000018F0A901DB0101C0EF019A01BD01DF013E
:103A10000280F381E02DD7CF21153105F9F0281B65
:103A2000390B2430310580F48A819B816115710541
:103A300021F0FB019383828304C09093A9038093B8
:103A4000A803FE01329644C0FE01E20FF31F8193EA
:103A5000919322503109398328833AC02091A603DB
:103A60003091A703232B41F42091020130910301EF
:103A70003093A7032093A603209100013091010108
:103A80002115310541F42DB73EB740910401509105
:103A90000501241B350BE091A603F091A703E21763
:103AA000F307A0F42E1B3F0B2817390778F0AC0161
:103AB0004E5F5F4F2417350748F04E0F5F1F50933E
:103AC000A7034093A6038193919302C0E0E0F0E046
:103AD000CF01DF91CF910895CF93DF93009709F441
:103AE00087C0FC01329713821282C091A803D09143
:103AF000A903209781F420813181280F391F8091FB
:103B0000A6039091A7038217930779F5F093A70373
:103B1000E093A6036DC0DE0120E030E0AE17BF07E2
:103B200050F412964D915C9113979D0141155105EA
:103B300009F1DA01F3CFB383A28340815181840F6D
:103B4000951F8A179B0771F48D919C911197840F93
:103B5000951F02969183808312968D919C91139765
:103B6000938382832115310529F4F093A903E0930F
:103B7000A8033EC0D9011396FC93EE9312974D9182
:103B80005D91A40FB51FEA17FB0779F4808191813D
:103B9000840F951F0296D90111969C938E93828172
:103BA000938113969C938E931297E0E0F0E08A81C4
:103BB0009B81009719F0FE01EC01F9CFCE0102962E
:103BC00028813981820F931F2091A6033091A7038A
:103BD0002817390769F4309729F41092A903109235
:103BE000A80302C013821282D093A703C093A60336
:103BF000DF91CF910895A0E0B0E0E1E0FEE10C9408
:103C0000E721EC01CB01209719F40E94D41CB8C025
:103C1000FE01E60FF71F9E0122503109E217F3075C
:103C200008F4ACC0D9010D911C9111970617170724
:103C3000B8F00530110508F49FC0A801445051099F
:103C40004617570708F498C002501109061B170BB6
:103C5000019311936D937C93CF010E946C1D8CC0D6
:103C60005B01A01AB10A4E01800E911EA091A8031B
:103C7000B091A903612C712C60E070E0109709F4F9
:103C800049C0A815B905C9F5ED90FC9011976701D9
:103C900042E0C40ED11CCA14DB0478F147018A1833
:103CA0009B08640142E0C40ED11C1296BC9012978E
:103CB0001396AC91B5E0CB16D10440F0B282A38349
:103CC00091828082D9018D939C9309C00E5F1F4F12
:103CD0000E0D1F1DF90111830083EB2DFA2F6115C5
:103CE000710531F0DB011396FC93EE93129744C0FB
:103CF000F093A903E093A8033FC06D917C911197C5
:103D00006616770608F43B01BD0112960D90BC9132
:103D1000A02DB4CF6091A6037091A7036815790513
:103D2000E9F468167906D0F4409100015091010140
:103D30004115510541F44DB75EB760910401709192
:103D40000501461B570BE417F507C0F4F093A703D2
:103D5000E093A603F901918380830EC00E94D41CD6
:103D60007C01009759F0A801BE010E94EC1ECE0113
:103D70000E946C1DC70104C0CE0102C080E090E02B
:103D8000CDB7DEB7EEE00C9403221F93FC01992718
:103D90008827BC01E89411911032E9F3193010F032
:103DA0001E30C8F31B3251F01D3249F4689406C02E
:103DB0000E942C1F610F711D811D911D11911053C7
:103DC0001A30B0F33EF490958095709561957F4FD1
:103DD0008F4F9F4F1F910895FB01DC0102C001909E
:103DE0000D9241505040D8F70895FB01DC0101903D
:103DF0000D920020E1F708954532510520F442303C
:103E000010F00C94071FFB011082CB010895BB2713
:103E10004A3031F4992322F4BDE2909581959F4F69
:103E20000C94641F2532310520F4223010F00C94DC
:103E30001D1FFA011082CA010895BB272A3051F4D0
:103E4000992342F4BDE290958095709561957F4FDE
:103E50008F4F9F4F0C94421F592F482F372F262FDB
:103E6000660F771F881F991F660F771F881F991F7E
:103E7000620F731F841F951F660F771F881F991F7E
:103E80000895BB27FA01A62F6217710581059105D8
:103E9000330B30FB66F0AA27660F771F881F991F28
:103EA000AA1FA21710F0A21B63953850A9F7A05DB6
:103EB000AA3308F0A95DA19336F7B111B19310822E
:103EC000CA010C94D321BB27FB015527AA27880FD1
:103ED000991FAA1FA41710F0A41B83955051B9F77E
:103EE000A05DAA3308F0A95DA193009779F7B111FD
:103EF000B1931192CB010C94D3216F927F929F9238
:103F0000AF92BF92CF92DF92EF92FF920F931F93E7
:103F1000CF93DF93CDB7DEB729970FB6F894DEBF06
:103F20000FBECDBF6A01B22E102F0C3320F4FF2438
:103F3000F394F00E02C04CE3F42E0F2D27E0AE01F7
:103F40004F5F5F4F0E94FB207981272F297021301E
:103F500031F0E1FC06C0E0FC06C060E005C06DE2A7
:103F600003C06BE201C060E2AE2DA07173FF36C0EA
:103F7000662311F084E001C083E08B1510F4B81AB9
:103F800001C0B12CA1110BC0F6018B2D90E288234A
:103F900019F091938150FBCFCB0CD11CB12C66232F
:103FA00031F0F601608396012F5F3F4F6901C60132
:103FB0000396E2FE05C02EE4F601208331E404C03E
:103FC0002EE6F601208331E631832283FC012B2D7E
:103FD00030E22223F1F131932150FBCF72FF40C038
:103FE000662311F084E001C083E08B1510F4B81A49
:103FF00001C0B12CA1110BC0F6018B2D90E28823DA
:1040000019F091938150FBCFCB0CD11CB12C6623BE
:1040100031F0F601608396012F5F3F4F6901C601C1
:104020000396E2FE07C029E4F60120832EE42183F3
:1040300026E406C029E6F60120832EE6218326E643
:104040002283FC012B2D30E2222319F031932150E1
:10405000FBCFFC01EB0DF11D10828EEF9FEFB7C07F
:10406000B1E0611101C0B0E04B2F50E01816190605
:1040700024F49C012F5F3F4F02C021E030E0240F69
:10408000351F112329F0412F50E04F5F5F4F02C0D1
:1040900040E050E0420F531F2B2D30E042175307F2
:1040A00014F4B41A01C0B12C2E2D287159F4F60164
:1040B0002B2D30E2222319F031932150FBCFCB0C72
:1040C000D11CB12CBB2331F0F601608396012F5F28
:1040D0003F4F6901A1110BC0F6012B2D30E32223C4
:1040E00019F031932150FBCFCB0CD11CB12CF80E21
:1040F0000A81372F3071A32E74FF03C0013309F4F6
:10410000FA941F142CF42F2D293018F028E001C048
:1041100021E0682F392F97FF02C060E030E0462F82
:10412000532F612C712C3EE2932EBC01621B71094E
:104130009B01DC01A41BB50BE1E0F0E0EC0FFD1FDF
:10414000AE0FBF1FE12EF12CF194E194F1084F3F27
:10415000FFEF5F0731F4F6019082B6016F5F7F4F8A
:104160006B01841795074CF02417350734F4BD0113
:10417000660D771DFB01118101C010E3415051090B
:10418000FFEF6F1A7F0AB6016F5F7F4F4E155F0515
:1041900024F0F60110836B01DACF4817590739F480
:1041A000063320F4053319F4A11001C011E3F60120
:1041B0001083FB018B2D90E2882319F0919381509D
:1041C000FBCFFB01EB0DF11D108280E090E0299602
:1041D0000FB6F894DEBF0FBECDBFDF91CF911F9118
:1041E0000F91FF90EF90DF90CF90BF90AF909F9096
:1041F0007F906F900895283008F027E03327DA0188
:10420000990F311D87FD916000966105710539F4A4
:1042100032602E5F3D9330E32A95E1F708959F3F8A
:1042200030F080387105610509F03C5F3C5F3D93DB
:10423000913008F08068911DDF93CF931F930F9307
:10424000FF92EF92192F987F9695E92F9695969564
:10425000E90FFF27E75BFC4F99273327EE24FF2464
:10426000A701E70105900894079428F4360FE71E8C
:10427000F81E491F511D660F771F881F991F06944E
:10428000A1F70590079428F4E70EF81E491F561F62
:10429000C11D770F881F991F661F0694A1F705900F
:1042A000079428F4F80E491F561FC71FD11D880F09
:1042B000991F661F771F0694A1F70590079420F4B5
:1042C000490F561FC71FD81F990F661F771F881FDA
:1042D0000694A9F784911095177041F0D695C7956B
:1042E00057954795F794E7941A95C1F7EFEEF2E0EA
:1042F00068941590159135916591959105907FE29F
:104300007395E118F10A430B560BC90BD009C0F79E
:10431000E10CF11E431F561FC91FD01D7EF47033E0
:1043200011F48A95E6CFE894015030F0080F0AF4B2
:104330000027021708F4202F2395022F7A3328F044
:1043400079E37D932A95E9F710C07D932A9589F644
:10435000069497956795379517951794E118F10A84
:10436000430B560BC90BD00998F023957E9173959A
:104370007A3308F070E37C932013B8F77E91706174
:104380007D9330F0839571E37D9370E32A95E1F797
:104390001124EF90FF900F911F91CF91DF919927FA
:1043A00087FD90950895DC01FC01672F71917723BB
:1043B000E1F7329704C07C916D9370836291AE17E0
:1043C000BF07C8F308952F923F924F925F926F926A
:1043D0007F928F929F92AF92BF92CF92DF92EF9295
:1043E000FF920F931F93CF93DF93CDB7DEB7CA1B16
:1043F000DB0B0FB6F894DEBF0FBECDBF09942A8841
:10440000398848885F846E847D848C849B84AA84E8
:10441000B984C884DF80EE80FD800C811B81AA8175
:10442000B981CE0FD11D0FB6F894DEBF0FBECDBF40
:10443000ED01089514E0C0E0D4E004C0FE010E9444
:0E444000AF1C2296C430D107C9F7F894FFCF05
:10444E000000AA0380000100E1000000000000014E
:10445E0001585858585858583130306563686F2095
:10446E00270027203E3E200064617465002B254402
:10447E002C255400646174616C6F6700627566660A
:10448E0065720064656C617900636174202F6D6ED6
:10449E00742F73642F61726475696E6F2F6172640D
:1044AE0075696E6F2E706172616D207C206772650A
:1044BE0070200000000000BE08FE08D009DA09F4E2
:1044CE00096709FE002F62696E2F617368002D6304
:1044DE000000000000390A38138E0A980AB00A3814
:1044EE000A52656164206661696C00000000000379
:1044FE00104A102D103D1019102A10000000005BFC
:10450E00113813DD10F610E810391100000000C745
:10451E0012000000006B193813DE194C1A941A00A1
:00000001FF
